:020000040800F2
:10000000A80B0020910100089F0C0008610A00085D
:100010009D0C000881070008491A00080000000034
:10002000000000000000000000000000131700089E
:100030003F08000800000000A5100008BD170008D8
:10004000AB010008AB010008AB010008AB010008E0
:10005000AB010008AB010008AB010008AB010008D0
:10006000AB010008AB010008AB01000885070008E0
:10007000AB010008AB010008AB010008AB010008B0
:10008000AB010008AB010008AB010008AB010008A0
:10009000AB010008AB010008AB010008AB01000890
:1000A000AB010008AB010008AB010008AB01000880
:1000B000AB010008AB010008AB010008AB01000870
:1000C000AB010008AB010008AB010008AB01000860
:1000D000AB010008AB010008AB010008AB01000850
:1000E000AB010008AB010008AB01000800F002F80A
:1000F00000F03FF80AA090E8000C82448344AAF183
:100100000107DA4501D100F034F8AFF2090EBAE880
:100110000F0013F0010F18BFFB1A43F0010318473B
:10012000FC9800001C990000103A24BF78C878C1E0
:10013000FAD8520724BF30C830C144BF04680C60ED
:10014000704700000023002400250026103A28BF35
:1001500078C1FBD8520728BF30C148BF0B60704739
:10016000642900F07380002070471FB51FBD10B5D3
:1001700010BD00F006FA1146FFF7F7FF01F082FE0E
:1001800000F024FA03B4FFF7F2FF03BC01F0E9FC2E
:100190000948804709480047FEE7FEE7FEE7FEE71B
:1001A000FEE7FEE7FEE7FEE7FEE7FEE70448054957
:1001B000054A064B70470000CD170008ED00000807
:1001C000A8050020A80B0020A8070020A8070020F1
:1001D000704700000FB41CB5074B06AA7B44694664
:1001E0000090059800F0B5F90020694600F0C4F9C8
:1001F0001CBC5DF814FB00009903000070B50446B8
:1002000085690068C10601D5302600E02026C007B8
:1002100007D070BDD4E9012130469047206A401CC8
:1002200020626D1EF6D570BD70B5044685690078F4
:10023000C00707D170BDD4E9012120209047206A72
:10024000401C20626D1EF6D570BD00002DE9F04106
:100250000646002410687529314616A510D0AFF364
:100260000080002802DA404213A507E031688A07BF
:1002700001D512A502E0490704D511A5012401E02A
:10028000AFF3008000210A2206F1240709E0B0FB49
:10029000F2FCB0FBF2F302FB1C003030785418463D
:1002A000491C0028F3D123462A463046BDE8F041D8
:1002B00000F0F1B8000000002D0000002B0000004D
:1002C000200000002DE9F05F894604464FF0000A47
:1002D000DFF824B1FB44C0F820A02046E16888473D
:1002E00000287DD0252806D0D4E901219047206A36
:1002F000401C2062F1E700255F462046E168884700
:100300002028064607DB312E05D2B81910F8200C3C
:1003100008B10543F1E7A80701D525F00405C4F8A5
:100320001CA00027C4F818A02A2E09D0304601F0DE
:1003300011FC38B304EB8708303EC8F8186019E0A8
:1003400059F8041B204604EB87029161E168884755
:10035000012F064618D1E069002820DA25F0200593
:100360001DE0D8F8180000EB800006EB40003038A4
:10037000C8F818002046E1688847064601F0EAFB05
:100380000028EED1012F0AD02E2E08D12046E16898
:1003900088477F1C0646022F45F02005C4DBA06974
:1003A000002803DA404245F00105A061E80701D0CA
:1003B00025F01005A6B1A6F14100192802D8203673
:1003C00045F400654A463146204625604D46FFF714
:1003D000C7FE60B1012807D0ED1D25F0070000E041
:1003E00007E000F1080978E705F1040975E73046F0
:1003F0007AE7206ABDE8F09F319700004FF00002D5
:100400000429C0F0128010F0030C00F01B80CCF126
:10041000040CBCF1020F18BF00F8012BA8BF20F894
:10042000022BA1EB0C0100F00DB85FEAC17C24BFE8
:1004300000F8012B00F8012B48BF00F8012B704792
:100440004FF0000200B5134694469646203922BF6D
:10045000A0E80C50A0E80C50B1F12001BFF4F7AFB8
:10046000090728BFA0E80C5048BF0CC05DF804EB9A
:10047000890028BF40F8042B08BF704748BF20F808
:10048000022B11F0804F18BF00F8012B7047704706
:100490007047704770472DE9F0470D4699469246E0
:1004A000044600F124080168880604D5E06921F0BB
:1004B0001001216000E00120A84201DD471B00E09F
:1004C0000027A1697A1902EB0900081AA0612078B7
:1004D000C00602D42046FFF791FE002608E0D4E9CA
:1004E00001211AF806009047206A401C761C206201
:1004F0004E45F4DB2078C0060AD52046FFF77EFE85
:1005000006E0D4E9012130209047206A401C206297
:10051000381EA7F10107F4DC07E0D4E9012118F83F
:1005200005009047206A401C2062281EA5F10105A5
:10053000F3DC2046FFF778FE2078000602D5022083
:10054000BDE8F0870120FBE701694A1C02610878D9
:10055000704700B58FB0CDE9013100210591054903
:100560007944CDE9031011466846FFF7ABFE0FB0A2
:1005700000BD0000E5FFFFFF0A6802F8010B0A60FA
:100580007047754600F02CF8AE46050069465346A4
:1005900020F00700854618B020B5FFF707FEBDE83C
:1005A00020404FF000064FF000074FF000084FF0DA
:1005B000000B21F00701AC46ACE8C009ACE8C0096B
:1005C000ACE8C009ACE8C0098D46704710B50446D8
:1005D000AFF300802046BDE81040FFF7D3BD000018
:1005E00000487047440500200029816802D041F08E
:1005F000010101E021F001018160704710B501F0B7
:100600000DFB01F0AFFABDE8104000F00BB8002977
:10061000816802D041F4807101E021F48071816031
:100620007047000010B501218CB0084600F046FD6F
:100630000520039000201249019102904FF480613F
:1006400007910A9080210591202108910D49009180
:100650008915049008010C4C0691099069462046C2
:1006600000F0D0F8022000F09DF80122022120467F
:1006700000F0C0F80121204600F0A0F80CB010BD39
:10068000740000204C2401400800024000298168C9
:1006900002D041F4801101E021F4801181607047A3
:1006A000014600208968490700D5012070470000F5
:1006B00010B542680E4B0C791A400B6842EA0422CE
:1006C0001343436083680B4A1340D1E9024222433B
:1006D0004C7943EA44031A438260C26A097C22F4DB
:1006E0007002491EC9B242EA0151C16210BD000048
:1006F000FFFEF0FFFDF7F1FF70B5072409290AD9C5
:10070000C568A1F10A0606EB4606B440A543B3400E
:100710001D43C56007E0056901EB4106B440A543F0
:10072000B3401D4305611F23072A09D2446B521EA3
:1007300002EB820293409C4391400C43446370BDA2
:100740000D2A09D2046BD21F02EB820293409C4314
:1007500091400C43046370BDC46A0D3A02EB8202FF
:1007600093409C4391400C43C46270BD816841F04A
:10077000080181607047816841F004018160704721
:10078000FEE7000010B5022000F024F8012806D191
:1007900003490870BDE81040022000F003B810BD06
:1007A00024000020C10002D50249086070470249B8
:1007B00048607047040402400000024000290168BC
:1007C00002D041F0010102E04FF6FE7211400160DB
:1007D0007047000001460020CA0001D5034A00E02E
:1007E000034A12680A4200D0012070470004024008
:1007F00000000240002A026801D00A4300E08A4358
:100800000260704730B5036847F6F07293430C6A94
:100810008A682243D1E904452C4322438C69224350
:10082000CC6922434C6A22438C6A22431A430260F9
:10083000CA6842600A6882604968C16030BD70471A
:10084000F0B585B000F080FD3C4E3D4F3D4C30781A
:10085000012817D13878022814D1607810B1012806
:1008600006D00FE03849394801F09DFD4C2304E0E3
:100870003549364801F097FD6C2340223B2133482F
:1008800001F0A7FC3249314801F08DFD31A313225C
:1008900000212E4801F02AFD31483049006802F05D
:1008A00081FD02F033FD80B26425B0FBF5F1B0FBB1
:1008B000F5F205FB11032BA101A8FFF78BFC01AB9F
:1008C00012221821214801F011FD29A313224B21E6
:1008D0001E4801F00BFDB4F8034022A1B4FBF5F073
:1008E000B4FBF5F205FB104301A8FFF773FC01AB65
:1008F00012226321154801F0F9FC307801281BD140
:100900003878022818D1B4F5AA7F15D200210F48F3
:1009100001F041FD0C20009020230A2263210B48A6
:1009200001F0F1FB0121094801F035FD12A312226B
:100930006321064801F0DAFC05B0F0BD2500002077
:10094000380000207E000020B66D0008B0040020B2
:10095000D93A0008522E563A000000000000C84262
:100960002000002025642E2530326456000000004F
:10097000462E563A000000006C6F770004490A6862
:1009800022F010020A600A6802430A607047000001
:1009900000200240034A116801F038010143116050
:1009A0007047000000200240F0B5CA78002502F030
:1009B0000F03D20601D58A7813430A784FF00F0E41
:1009C00012F0FF0F4FF001021CD004680F8802FAEA
:1009D00005F63740B74211D14FEA850C0EFA0CF7F5
:1009E00024EA070703FA0CF43C43CF78282F02D0FF
:1009F000482F02D002E0466100E006616D1C082D20
:100A0000E4D304600C88FF2C1ED944685FF0000614
:100A100006F1080702FA07F50F882F40AF420FD101
:100A20004FEA860C0EFA0CF7BC4303FA0CF73C4372
:100A3000CF78282F00D14561CF78482F00D10561AC
:100A4000761C082EE4D34460F0BD02460020926874
:100A50000A4200D001207047416170470161704730
:100A6000FEE700004FF400510148FFF7F7BF000018
:100A7000000C01404FF400510148FFF7EDBF0000AA
:100A8000000C01404FF480410148FFF7E7BF000030
:100A9000000C01404FF480410148FFF7DDBF00002A
:100AA000000C014038B50121102000F01FFB01218E
:100AB000042000F01BFB0121082000F017FB01219E
:100AC000082000F013FB4FF40050ADF80000482060
:100AD0008DF8030003208DF8020069460E48FFF7E9
:100AE00063FF4FF48070ADF8000069460B48FFF7D4
:100AF0005BFF4FF480500A4CADF800006946204679
:100B0000FFF752FF4FF40040ADF800006946204661
:100B1000FFF74AFF38BD0000001001400008014007
:100B2000000C01402DE9F05F0126324CDFF8C8804F
:100B3000DFF8C8A0324D77034FF480794FF4805B23
:100B400008B1667001E06078A0B139464046FFF711
:100B50007CFFB0B149465046FFF777FF88B1594650
:100B60002846FFF772FF60B14FF400412846FFF7B7
:100B70006CFF30B139464046FFF767FF012824D0AB
:100B800036E0052001F0D0F800206070394640467C
:100B9000FFF75BFF80B149465046FFF756FF70B143
:100BA00059462846FFF751FF58B14FF400412846F7
:100BB000FFF74BFF38B11BE00120BDE8F09F02209A
:100BC000FBE70320F9E70420F7E749465046FFF723
:100BD0003CFF01280CD159462846FFF736FF012873
:100BE00006D1C1032846FFF730FF012800D1667007
:100BF0000020E2E72C000020001001400008014026
:100C0000000C01400D4930B40A8800230A2A08D29A
:100C1000521C92B20A800A2A03D14A88521C4A8086
:100C20000B804A88D41E022C05D8052A00D14B809F
:100C300030BC00F005B830BC00F026B81800002029
:100C400070B5044600F020F80E4980228B15481537
:100C5000082C12D2DFE804F01104060D080A0C0F6C
:100C60000A6070BD0B6070BD0A60FBE70A6000E0BF
:100C70000B60086070BD0A60FAE7BDE8704000F0E4
:100C800003B80000140C0140034880210160811565
:100C90000160411501607047100C0140FEE770478C
:100CA0001FB50FA10522D1E90001CDE9020102A97A
:100CB000302000F00DF905226946102000F05CF8A4
:100CC000002069460A5CA52A03D1401CC0B2052851
:100CD000F8D3052802D0012004B010BD0020FBE7A6
:100CE000A5A5A5A5A5000000F8B50121082000F0E4
:100CF000FDF94FF48066ADF8006010251C4F8DF8AB
:100D0000035001248DF8024069463846FFF74CFE37
:100D10000121042000F0EAF9ADF800508DF80350ED
:100D2000144D8DF8024069462846FFF73DFE3146D6
:100D30003846FFF793FE10212846FFF78FFE01216A
:100D4000082000F0D3F9ADF8004048208DF80300EA
:100D50008DF8024069463846FFF726FE3146384690
:100D6000FFF77AFE10212846FFF778FEF8BD000055
:100D7000000C0140000801402DE9F041DFF8388007
:100D80000F460446154610214046FFF765FE2046F3
:100D900000F066FC0646002405E0FF2000F060FC41
:100DA0003855641CE4B2AC42F7D310214046FFF73B
:100DB00055FE3046BDE8F0810008014070B5094D90
:100DC000044610212846FFF747FE204600F048FC65
:100DD000FF2000F045FC044610212846FFF73EFEA8
:100DE000204670BD0008014070B51E4E4FF480656E
:100DF00029463046FFF730FE0321084600F08CF804
:100E0000194C0522611C302000F062F80522611C9B
:100E10002A2000F05DF806213D2000F07DF8012138
:100E20003C2000F079F80121212000F075F8012123
:100E3000222000F071F8A179252000F06DF81A2128
:100E4000242000F069F80721262000F065F80E2123
:100E5000202000F061F829463046BDE87040FFF7D9
:100E6000FDBD0000000C01403800002070B5174C9B
:100E700005464FF4806631462046FFF7EDFD0B2214
:100E80002946A02000F024F831462046FFF7E6FD71
:100E900001212046FFF7D9FD0028F9D10720FFF7EF
:100EA0008DFF04460146272000F036F800F09CF83C
:100EB000E00605D5FF21E12000F02EF8102070BDDE
:100EC000A00601D5202070BDFF2070BD000C0140A0
:100ED0002DE9F041DFF83C800D460446164610210E
:100EE0004046FFF7B9FD204600F0BAFB0746002454
:100EF00006E000BF15F8010B00F0B2FB641CE4B281
:100F0000B442F7D310214046FFF7A8FD3846BDE8AC
:100F1000F08100000008014070B50A4D0E460446FD
:100F200010212846FFF798FD204600F099FB044663
:100F3000304600F095FB10212846FFF78FFD204634
:100F400070BD00000008014070B50F23C47801781F
:100F50000122F4B1144C2468457804F4E064C4F52B
:100F6000E064240AC4F10406E3408478B5401C40E0
:100F70002C4301F1E021230181F80034007800F0D6
:100F80001F018A404009800000F1E020C0F80021E4
:100F900070BD01F01F0082404809800000F1E02090
:100FA000C0F8802170BD00000CED00E0024908434C
:100FB00002490860704700000000FA050CED00E0EF
:100FC00008B54FF4A060FFF7F1FF0B208DF800008B
:100FD00000208DF8010001208DF802008DF803003B
:100FE0006846FFF7B1FF08BD10B50B220849612024
:100FF000FFF7C2FE064907480A78AA2A02D1897A71
:10100000AC2902D00021417010BD0121FBE7000096
:101010007E000020240000200B4810B50178002934
:1010200011D000210170094800F01AFE084800F0B4
:1010300047FE0748FFF71AFF202804D0BDE81040FC
:101040000420FFF7DFBD10BD240000207400002045
:1010500089000020F8B5002000900121082000F050
:1010600045F80121082000F041F84FF48040ADF828
:10107000000010240A4E8DF8034003258DF802501D
:1010800069463046FFF790FC6002ADF800008DF82D
:1010900003408DF8025069463046FFF785FCF8BDE5
:1010A000000C014070470000034A516821F44041A0
:1010B000014351607047000000100240044A0029BB
:1010C000516901D0014300E0814351617047000044
:1010D00000100240044A0029D16901D0014300E018
:1010E0008143D1617047000000100240044A00298A
:1010F000916901D0014300E0814391617047000094
:10110000001002400C48016841F001010160416893
:101110000A4A114041600168094A114001600168B2
:1011200021F480210160416821F4FE0141604FF407
:101130001F01816070470000001002400000FFF8AE
:10114000FFFFF6FE30B51F494A6812F00C031E4A35
:1011500003D0042B01D0082B21D002604A680F2352
:101160001A4C03EA1212A35C0268DA4042604B6830
:10117000072505EA1323E35C22FA03F383604B6837
:1011800005EAD323E35CDA40C2604968032303EA3B
:101190009131231F595CB2FBF1F1016130BD4A6806
:1011A0004B6802F470124FF0020413F4803F04EB1A
:1011B000924202D04B689B0301D5054B00E0024BE5
:1011C0005A43CAE70010024000127A004300002090
:1011D00000093D000246002053090949012B0BD0AC
:1011E000022B0BD0D1F8241002F01F0201239340F0
:1011F0000B4200D0012070470968F5E7096AF3E760
:10120000001002400248406800F00C0070470000E7
:1012100000100240034A516821F0F001014351607F
:1012200070470000001002400B490A6822F4803227
:101230000A600A6822F480220A60B0F5803F07D075
:10124000B0F5802F03D1086840F4A02008607047F3
:10125000086840F48030F9E70010024010B5FFF74D
:1012600051FF4FF480342046FFF7DEFF00F056F8C0
:10127000012823D10020FFF7CDFFA01100F020F8B6
:10128000002000F027F80220FFF784FB1020FFF772
:1012900075FB4FF4E011204600F02CF8012000F01F
:1012A00023F83920FFF796FF0028FAD0022000F03B
:1012B0002BF800BFFFF7A6FF0828FBD110BD0000E8
:1012C000034A516821F4E061014351607047000016
:1012D0000010024003494A6822F4605242EAC0000A
:1012E00048607047001002400149086670470000DE
:1012F00000004242034A5368084323F47C13184316
:101300005060704700100240034A516821F0030109
:1013100001435160704700000010024018B50020E2
:101320004FF4A06400903120FFF754FF0099491C4E
:101330000091A14201D00028F5D03120FFF74AFFEB
:10134000002800D0012018BD70B51048008902F0B7
:1013500015F80F4902F026F86FF00B0102F095F92D
:10136000012102F092F90B4C0546014660602068AD
:10137000064602F0E3F80849884204D80749884243
:1013800001DC666070BD256070BD00007400002047
:10139000333343401C0000208FC2F5BC8FC2F53CA4
:1013A0002DE9F04F87B001F0CFFE7A4800F058FCED
:1013B00079A17B4800F0C8FF401DC6B279A17848EA
:1013C00000F0C2FFDFF8E4914B30C4B21925B9F840
:1013D000002077A101A8FEF7FDFE01AB1E2200212F
:1013E0006F4800F083FFDFF8D0A14FF47A71DAF88C
:1013F0000400884205DC00EBC00202EB001090FB09
:10140000F1F54FF00808EFB21C231622314664486C
:10141000CDF8008000F099FE04253B461822B11C4F
:101420005F48009500F06FFE99F8022063A101A8C3
:10143000FEF7D0FE01AB1E224621594800F056FFB0
:10144000BAF808001C23323807B216222146544845
:10145000CDF8008000F079FE04F10D01042318227C
:101460004F48059100F04AFF4FF03208002F0BDA89
:101470006FF00A00474397FBF8F0C3B2E01A0D3053
:1014800081B21822009509E0C7EBC700410091FB2B
:10149000F8F0C3B2182204F10E010095404800F0A4
:1014A00032FECB4699F8032046A101A8FEF792FE32
:1014B00001AB2C2200213A4800F018FFBAF80C00CA
:1014C0004FF00809323807B21C2324223146344831
:1014D000CDF8009000F039FE0423262206F10D011C
:1014E0002F4800F00BFF002F0BDA6FF00A00474384
:1014F00097FBF8F0C3B2F01A0D3081B226220095A6
:1015000009E0C7EBC700410091FBF8F0C3B2262207
:1015100006F10E010095224800F0F5FD9BF804202D
:101520002AA101A8FEF756FE01AB2C2246211C4839
:1015300000F0DCFEBAF810001C23323806B2242278
:1015400021461748CDF8009000F0FFFD0423262225
:101550001348059900F0D2FE002E0BDA6FF00A0056
:10156000464396FBF8F0C3B2E01A0D3081B2262252
:10157000009509E0C6EBC600410091FBF8F0C3B24C
:10158000262204F10E010095054800F0BCFD07B0CD
:10159000BDE8F08F74000020543A30303000000075
:1015A000B0040020503A3030000000002600002037
:1015B000543A2564000000005C000020503A256485
:1015C00000000000523A256400000000593A2564EA
:1015D0000000000010B586B001210420FFF786FD51
:1015E00001210803FFF782FD01210846FFF77EFD78
:1015F000E020ADF8140018208DF8170001208DF8B8
:10160000160005A91448FFF7CFF94FF48270ADF822
:1016100002000020ADF808004FF40071ADF80A1088
:101620001021ADF80C10ADF80400ADF80000ADF8D5
:101630000600ADF80E000720084CADF81000694612
:10164000204600F04AF80121204600F031F8FF2042
:1016500000F006F806B010BD00080140003001405F
:1016600070B506460024114D03E0641CE4B2C82C9A
:101670000FD80221284600F025F80028F5D0314681
:10168000284600F028F8002405E0641CE4B2C82CC9
:1016900001D9002070BD0121284600F013F8002870
:1016A000F3D0284600F015F8C0B270BD00300140FC
:1016B0000029018802D041F0400101E021F0400101
:1016C000018070470246002012890A4200D00120A2
:1016D0007047808970478181704730B502884C8897
:1016E00002F441530A88CD8822438C882C4322433C
:1016F0000C8922434C8922438C892243CC89224382
:101700001A430280828B22F400628283098A01825A
:1017100030BD70470CB50021264801910091026848
:1017200042F4803202604FF4A063026802F4003297
:101730000092019A521C0192009A12B9019A9A429F
:10174000F3D10268920333D5012100911A490A6846
:1017500042F010020A600A6822F003020A600A6876
:1017600042F002020A60416841604168416041689C
:1017700041F480614160416821F47C11416041681D
:1017800041F4E8114160016841F080710160016835
:101790008901FCD5416821F003014160416841F0B5
:1017A000020141604168C1F381010229FAD10CBDF7
:1017B00000910CBD00100240002002400248016868
:1017C000491C016070470000140000200F4810B54C
:1017D000016841F00101016041680D4A114041601A
:1017E00001680C4A11400160016821F48021016008
:1017F000416821F4FE0141604FF41F018160FFF751
:1018000089FF05494FF00060086010BD00100240DC
:101810000000FFF8FFFFF6FE08ED00E00029018858
:1018200002D041F0800101E021F080010180704789
:101830000029018802D041F0010101E021F00101FD
:101840000180704770B5028C22F480520284048CAF
:101850008288838B0D8823F4E6464FF6FF7303EAF4
:101860000525354324F400560C8903EA0434344337
:101870004E8803EA06362643094CA04202D0094CA2
:10188000A04205D122F480448A8903EA82122243CD
:1018900082808583C988A0F84010068470BD00004E
:1018A000002C014000340140828B4FF6FF7322F47C
:1018B000006203EA012111438183704730B5028839
:1018C0001B4B1C4C98420DD0A0420BD0B0F1804F66
:1018D00008D0194DA84205D0184DA84202D0184D85
:1018E000A84203D122F070054A882A43154DA84228
:1018F00006D0154DA84203D022F44075CA882A4369
:1019000002808A8882850A88028598420AD0A0428D
:1019100008D00E4A904205D00D4A904202D00D4A9E
:10192000904201D1097A01860121818230BD0000F7
:10193000002C014000340140000400400008004039
:10194000000C004000100040001400400040014026
:1019500000440140004801400029818902D041F43F
:10196000005101E021F400518181704710B5C1F3AD
:10197000421301F01F040121A140012B07D0022BCB
:1019800007D01430002A026805D00A4304E00C3066
:10199000F8E71030F6E78A43026010BD30B5044620
:1019A000008A85B00D464CF6FF710840E988014376
:1019B0002182A1894EF6F3100140A8882A8910439C
:1019C0006A890A431043A081A08A4FF6FF4108406C
:1019D000A9890143A1826846FFF7B4FB19488442F4
:1019E00001D1039800E00298A189090400EBC0012D
:1019F00001EB0010296801D5490000E08900B0FB27
:101A0000F1F06422B0FBF2F109010B096FF0180547
:101A10006B4300EB8300A3891D044FF0320306D50E
:101A200003EBC000B0FBF2F000F0070005E003EBB1
:101A30000010B0FBF2F000F00F000843208105B069
:101A400030BD000000380140FEE7000070B50546DB
:101A500086B0012144F20500FFF748FB4FF4007007
:101A6000ADF8100018208DF81300194E03248DF8DE
:101A7000124004A93046FEF797FF3015ADF810006C
:101A800004208DF813008DF8124004A93046FEF7AB
:101A90008BFF0020ADF80400ADF80600ADF808009B
:101AA000ADF80C000C200B4CADF80A00009569460F
:101AB0002046FFF773FF012240F225512046FFF731
:101AC00055FF01212046FFF747FF06B070BD00001B
:101AD000000801400038014070B51B4C1B482278BB
:101AE000018882B9B1F5617F0DD901202070201FD6
:101AF000027862704378A3708378E370C0782071B5
:101B000062711E20A07164291CD22078012819D18D
:101B100085020F4E29463046FEF79EFF0522611CC6
:101B20003020FFF7D5F90522611C2A20FFF7D0F9F4
:101B3000A1792520FFF7F0F929463046FEF78EFF00
:101B40000220207070BD0000380000202600002018
:101B5000000C014030380A2801D2012070470020D3
:101B60007047704710B5012186B04802FFF7BEFAF2
:101B700000204FF42021CDE902108DF805000090DF
:101B800005208DF810000120234C8DF804006946D3
:101B90002046FEF78DFD01212046FEF725FD01219F
:101BA0002046FEF734FD4FF44040FFF77DFA062350
:101BB000012200212046FEF79FFD0623022201217B
:101BC0002046FEF799FD0623032202212046FEF758
:101BD00093FD0623042203212046FEF78DFD0723F3
:101BE000052209212046FEF787FD2046FEF7BEFDAF
:101BF0002046FEF755FD0028FAD12046FEF7BBFD32
:101C00002046FEF74DFD0028FAD101212046FEF7BF
:101C10003DFD06B010BD00000024014038B5012193
:101C20000420FFF763FA0F20ADF8000000248DF8C0
:101C3000034069460848FEF7B7FE01210820FFF778
:101C400055FA0220ADF800008DF8034069460348BC
:101C5000FEF7AAFE38BD000000080140000C01405C
:101C600070B50446408801F089FB124901F09AFBE7
:101C700001F04CFB104D2880208801F07FFB0F4EB7
:101C8000314601F08FFB01F041FB2871E08801F043
:101C900075FB314601F086FB01F038FBA870A08887
:101CA00001F06CFB314601F07DFB01F02FFBE87089
:101CB00070BD0000910F7A3E26000020740CC83CD5
:101CC000164910B50C78A8238B22012C18D0022CB1
:101CD00015D1134903700B7843704B7883708B7860
:101CE000C370CB780371097941710E494B788371C8
:101CF0008B78C371CB78037209794172827210BDFF
:101D000003704B7843708B788370CB78C3700B79FA
:101D100003714B79437189798171EFE738000020B5
:101D2000260000209400002000B502464FF47A738C
:101D300002E0184600F003F8521EFAD200BD06E099
:101D400000BF00BF022100BF491C0829FBDB401E69
:101D5000F6D27047084800680849074A121F086011
:101D60001268054B4A60083B1B688B6004491043AE
:101D70001843086070470000F0F7FF1FA400002020
:101D80003400002000224C2101F03AB900224D21FC
:101D900001F036B901684A7B2D2101F031B910B547
:101DA000044601224C2101F02BF92046BDE81040E9
:101DB000FFF7F0BF01224D2101F022B910B5044612
:101DC00011B1FFF7F7FF01E0FFF7E0FF2046FFF753
:101DD000E1FF2046FFF7E3FF2046BDE81040FFF794
:101DE000D1BF70B50C46054601F08001FFF7E6FF54
:101DF00004F040012846FFF7E1FF04F020012846E7
:101E0000FFF7DCFF04F010012846FFF7D7FF04F0CE
:101E100008012846FFF7D2FF04F004012846FFF727
:101E2000CDFF04F002012846FFF7C8FF04F00101CE
:101E30002846FFF7C3FF2846FFF7BCFF2846FFF7F9
:101E4000A9FF2846FFF7ABFF2846FFF7B3FF284658
:101E5000FFF7A0FF2846BDE87040FFF793BF0000E2
:101E600070B50020FEF75EFE054D040005D0A87891
:101E7000844202D0204600F093F8AC7070BD0000A0
:101E80002C000020FFF7A2FC00F0EAF84FF4E1304C
:101E9000FFF7DCFDFFF75EFFFFF79CFBFEF724FF7B
:101EA00002E00120FEF7AEFEFEF7FAFE0028F8D1B0
:101EB000FEF79AFFFEF7F6FDFEF7A0FB00F0E2F852
:101EC000FFF77EF86420FFF72FFFFFF7C7F9FFF752
:101ED000C1F80F4B0F4A1049104800F0ADFA0F48F7
:101EE00000F05BFE00210D4800F067FE0C4C00BFC7
:101EF000FFF792F8FFF7B4FF2078022805D000F032
:101F000011F800BFFFF7E8FDF2E700F097F8F9E7F6
:101F1000DF2800085D2C0008A4980008B004002009
:101F20002C00002010B5084800F0E4F8FEF788FC0B
:101F3000FFF736FA044800F009F801F081F8BDE82F
:101F40001040014800F01EBAB00400207CB5104CCF
:101F500005466088401C608000F07CF86169411A89
:101F6000B1F57A7F04D3A17861700021618060614E
:101F70000849284600F017FA627807A16846FEF77C
:101F800029F96B463F226421284600F0AFF97CBD59
:101F90005C000020063700082564667073000000AE
:101FA000F0B5244D0026E91C01272C784B1C0A783B
:101FB000012814D0DFF880C0022823D003282AD0BB
:101FC00004280BD1012C09D1D05C401CC0B2D054E4
:101FD0009CF800200978904200D3CE54F0BD54B153
:101FE000012C0CD0022CF9D1022AF7D2521CD0B20B
:101FF0000870C65419E02F700E704E70F0BD0220AC
:102000002870F0BD012CFCD1D05C08B99CF8000010
:10201000401ED054F0BD012C02D0022C05D0F0BDE2
:102020002AB1D6540878401E08702F70F0BD2E706B
:10203000F0BD00002C000020089A000810B50448EC
:1020400000F058F8BDE81040014800F09BB90000CE
:10205000B004002001480068704700001400002010
:1020600007484FF47A710068B0FBF1F14FF0E020BF
:10207000491E4161002181610721016162B67047FB
:102080000000002030B587B001210420FFF722F8BE
:1020900047200024ADF81000ADF8164044F61F604C
:1020A000134DADF81400ADF8124004A92846FFF70F
:1020B00005FC6020ADF800000120ADF8020041F2FF
:1020C0008830ADF80600ADF8084069462846FFF7AD
:1020D000B9FB01212846FFF7A1FB08212846FFF79D
:1020E000E3FB01212846FFF7A3FB07B030BD00004A
:1020F0000008004001680A7C90F83810406B51439A
:10210000C900FEF77BB92DE9F8438146089C1E46BD
:10211000101980B20090881983B215468846484647
:1021200000F018F900280ED00027002C0BD0334601
:102130002A4641464846009700F082F86D1C641E0E
:10214000ADB2A4B2F1E7BDE8F8832DE9F84F8346BC
:102150000A9E9A46901980B201EB0A040090154637
:102160000F46A3B2584600F0F5F800282FD04FF0E4
:10217000000953462A4639465846CDF8009000F0EB
:102180005FF8022E23D3B61E360405F10105360C86
:10219000ADB214D04FF0010833462A4639465846AE
:1021A000CDF8008000F04CF8641EA1B233462A46F8
:1021B0005846CDF8008000F043F8A81985B2534680
:1021C0002A4639465846CDF8009000F039F8BDE867
:1021D000F88F2DE9F041044690F870001F4615462F
:1021E0000E4630B1012809D002280CD0032815D1A1
:1021F0000FE0E16D20468847284408E0E16D204665
:102200008847301A09E0E16D20468847281A85B2D0
:1022100004E0E16D20468847304486B23946002705
:10222000204600F0FFFAA4F864600100A4F86650AC
:1022300003D0204600F026FA87B23846BDE8F08188
:102240003FB581B0044690F88C00089900283AD038
:10225000BDF81000002836D0012811D9022902D07B
:10226000032907D00CE0BDF80820101A401CADF877
:10227000080005E0BDF80C20101A401CADF80C0059
:1022800011F0010521D0B4F84810BDF808008142D2
:1022900019D8B4F84A10814215D9B4F84E30B4F8C0
:1022A0004C2004A90DF10C0000F05EF900280AD0C2
:1022B0000095206BBDF81030BDF80C208568BDF886
:1022C00008102046A84705B030BDB4F84C10BDF842
:1022D0000C008142F7D8B4F84E108142F3D9B4F81B
:1022E0004A30B4F8482004A902A8DDE730B4024C13
:1022F000446030BC00F065B9212C000838B50124D9
:102300000094FFF79DFF38BD70B5044600F08AFACF
:10231000010016D0204600F0C8FA04F1600094F8DD
:102320007A10054600F08AF984F8900014F87B1FB3
:10233000284600F083F961782846BDE8704000F037
:102340007DB9002070BD0000014A426000F0A6BBCC
:10235000212C000870B50D461E460446B0F84E10FC
:10236000B0F84C00049B00F0E2FA002809D0B4F861
:102370004A10B4F8480033462A46BDE8704000F0E1
:10238000D6BA70BD10B5044600F061FB2046BDE82A
:10239000104000F00ABC80F89210032902D30121FA
:1023A00080F89210704710B50446806D884209D0BD
:1023B00004F17400A16500F015FB2046BDE8104053
:1023C00000F056B810BD00000149C165704700001B
:1023D000392600080021A0F85010A0F854104FF63C
:1023E000FF71A0F85210A0F85610016B4968084719
:1023F00070B5044600250498A565E362616384F81E
:10240000382084F8395084F86D5084F8915084F85D
:102410008D50012184F8921084F893102063016894
:10242000204688472046FFF7D5FF2046FFF7CCFF20
:1024300084F8705070BD00007CB50C4600931346C4
:102440000546084A084900F0C0FB01A800F0C4FA9C
:102450000146064B00949DF804202846FFF7C8FF6C
:102460007CBD0000D12D0008F92E00084929000884
:1024700010B5816D00291AD090F9813080F88E3026
:1024800090F9822080F88F2090F88D1000290ED0CE
:1024900001290DD090F97E4090F980100C449C42A7
:1024A00001DD80F88E408A4201DD80F88F1010BD7A
:1024B00090F983108B4201DA80F88E1090F9841025
:1024C000F1E72BB1012B05D0022B06D0104402E01E
:1024D000084400E0801A80B27047401AFBE72BB135
:1024E000012B05D0022B06D0401A02E0104400E078
:1024F000084480B27047801AFBE738B50446B0F84C
:1025000056000090B4F85230B4F85420B4F850108B
:102510002046FFF71FFF18B3012084F88C00B4F8A1
:102520004810B4F85000814201D2A4F84800B4F831
:102530004A10B4F85200814201D9A4F84A00B4F814
:102540004C10B4F85400814201D2A4F84C00B4F805
:102550004E10B4F85600814201D9A4F84E0038BD9F
:10256000002084F88C0038BD30B504880D882544DF
:10257000ADB2AC4205D99C4202D25D1EADB200E0C4
:1025800014469C4201D2954201D8002030BD9442AD
:1025900000D214469D4200D91D460480281B0880A5
:1025A000012030BD38B5C58F049C0094521BC46A0D
:1025B00092B2A04738BD38B5049C0094FFF7F2FFF3
:1025C00038BD2DE9F0471C4691468846064600F086
:1025D00033FD00254FF6FF7772682178304690472B
:1025E0000346B84225D0641CA3F57F40FE38F3D0E3
:1025F0004A4641463046FFF7ECFD96F8701031B17F
:10260000012907D0022908D003290FD10AE008EBDD
:10261000000104E009EB000106E0A8EB00011FFA4D
:1026200081F803E0A9EB00011FFA81F9284485B283
:10263000D2E72846BDE8F0870020704710B50C4669
:1026400000F006F80122641EA240801A40B210BDBC
:1026500030B50568047B2A78E2406318DBB2082BAA
:1026600009D36D1C05602D78C4F10804A5401543FD
:10267000083BEAB2DBB201248C40641E14400373B1
:10268000204630BD2DE9F843054600F1600400F016
:102690000CF915F96B6F2046E97BFFF7CFFF8146F8
:1026A000297C2046FFF7CAFF0746697C20466B3D20
:1026B000FFF7C4FF804694F90A00002857DDF0199F
:1026C000404247B2237CA0883A464946FFF7F9FECC
:1026D000A080237C3A46E0884946FFF700FFE0806F
:1026E000A188277C02460B4637B1012F0AD0022F62
:1026F00040D0032F0FD146E094F90A7030443B4498
:102700009BB207E0891B491C94F90A705B1C89B2D3
:102710009BB2384480B200902846FFF71BFE30B3CE
:102720000020207284F8090095F876102046FFF703
:102730008FFF814695F877102046FFF789FF0746FF
:1027400000224946284600F027F80122394628464B
:1027500000F022F801212046FFF77AFF0028EFD190
:1027600094F90900B042DFDBA07B85F89200404677
:10277000BDE8F88394F90A705B1CC91B491C89B237
:102780009BB2921B04E094F90A7033449BB2D21BB3
:10279000521C92B2401CBDE72DE9F74F84B00D46A4
:1027A000049C94F8687094F869806034A07AC01B27
:1027B000C6B20196B54200D201954FFA88F279B2BD
:1027C000A088B4F806B0237C92468946FFF779FECC
:1027D0000290237C524649465846FFF780FE024647
:1027E000069808B1A17B02E0607B50B9E17B0498B8
:1027F00080F89210207C0090DDE901310498FFF709
:102800001FFDB54207D3A81BC5B208F10100002780
:1028100000F0FF08CAE77819207284F8098007B031
:10282000BDE8F08F70B50D460146806D1730FF2D65
:1028300010D8612D02D3B1F8881003E0412D02D3E6
:10284000B1F886100844417819B30278AA42F9D148
:10285000801C70BDB1F88A100C1826460021304645
:1028600000F019F804440221304600F014F8361D37
:10287000A842F3D34FF6FF72207802EA0021607875
:10288000084306D0A84201D1E01C70BDA0780444E2
:10289000F2E7002070BD08444FF6FF7201784078DF
:1028A00002EA0121084480B2704730B5054600F1C4
:1028B000600401660020207315F8781F2046FFF79A
:1028C000C7FEA07269782046FFF7C2FEE072A87EBC
:1028D000A07310B10020E07330BD0120FBE710B5FC
:1028E00010462B2912D004DC292908D02A2904D12A
:1028F00008E04C290CD04D2911D0002010BDFFF765
:1029000013FA12E00A20FFF71AFA0EE000BF0CE0FB
:1029100012B1FEF7A7F808E0FEF7ACF805E012B137
:10292000FEF7B0F801E0FEF7B5F8012010BD8A42CD
:1029300005D2834201D89A4203D9012070478342CD
:10294000F9D8002070470000F0B502F00706012416
:10295000B440002590F892E0E7B2DDF814C02C46B0
:10296000BEF1010F01D83D4600D03C46076822F079
:102970000702BCF1000F3F7C07FB02F7BAB2476BBE
:102980003A44114409D108785B1E284360401B0477
:1029900001F8010B1B0CF6D1F0BD0A78761C2A4316
:1029A0006240A3F101030A7016F007069BB206D03D
:1029B0006A06150E6206140E002BEED1F0BD428F92
:1029C000114490F89220012A03D800BF4FF001056E
:1029D000F2D04FF00104EFE7082101700048704782
:1029E000B000002070B505460878287048786870F7
:1029F0008878A870C878E870087928714879687173
:102A000088790C46A871E079E871207A2872607A9A
:102A10006872A07AA872E07AE872207B2873607BE3
:102A20006873A07BA873E07BE873207C2874112175
:102A30002046FFF730FF688213212046FFF72BFF67
:102A4000A88215212046FFF726FFE88270BD2DE9F8
:102A5000F843064690F8387090F839500068002422
:102A60004FF6FF7890F81190316830462A460B7C7B
:102A7000716B04FB03FC1FFA8CFC08EACC0C61446C
:102A80000091002100F07AF8641C6D1CE4B2EDB2F4
:102A9000BC4201D24D45E7D3BDE8F8832DE9F047AC
:102AA0000546002085F86A0088466FF03F062846F4
:102AB00000F0C2FA002427464FF6FF794FF6FE7A5F
:102AC0006A6898F8001028469047014648450FD09C
:102AD00008F101085145F3D02846FFF715FC87B2ED
:102AE00016F1400F01D195F99060E01984B2E7E743
:102AF00095F96A1049B1E01B084495F99010002E31
:102B0000084484B201DDA01984B22046BDE8F087F4
:102B1000F0B590F838204FF6FF75036805EAC2015A
:102B20008187197C05EAC101418790F8394005EA9F
:102B3000C401C1875E7CA718B74201D9321B92B28B
:102B400005EAC20220F8401F11444180998A818021
:102B5000D98AC180F0BDFFF7DBBF0021A0F8481083
:102B6000B0F84410A0F84A10B0F84010A0F84C108B
:102B7000B0F84210A0F84E10FFF7BFBC1CB58DF89E
:102B800005108DF80620049C8DF804300094012275
:102B900084686B460F21A0471CBD30B484680023B5
:102BA000A44630BC1A460A21604730B4846800232A
:102BB000A44630BC1A461021604730B48468002314
:102BC000A4460A4630BC0B2160472DE9F04115466A
:102BD0000E460446069F00F009F86761A660C4E946
:102BE00003532046BDE8F04100F012B8002140F840
:102BF000081B064A026042608260C260C17681772B
:102C00000161FF21017780F820107047FD2F000837
:102C100030B484680023A44630BC1A4609216047BA
:102C2000080001D00A2801D14FF6FF70704730B478
:102C300004690023A44630BC1A461921604713B525
:102C40000122046901AB1721A0471CBD30B40469FF
:102C50000023A44630BC1A461821604770B51646BA
:102C60000446182924D004DC142914D0172904D1CF
:102C700005E019293DD020294CD0002070BD1D460B
:102C800006E029782046FFF7ACF8761EF6B26D1CF8
:102C9000002EF6D13EE001224C2100F0B1F90122D4
:102CA0004D21204600F0ACF92046FFF773F831E0E3
:102CB00094F8250040B12046FFF77CF82046FFF746
:102CC00069F82046FFF76BF82046FFF773F82046B7
:102CD000FFF75CF82046FFF75DF82046FFF752F853
:102CE000012184F82510204694F82410FFF779F884
:102CF00010E0FFF74BF82046FFF74CF82046FFF7AF
:102D00004EF82046FFF756F82046FFF743F800201C
:102D100084F82500012070BD30B4C4680023A446A7
:102D200030BC1A461921604730B4C4680023A44659
:102D30000A4630BC1621604730B4C4680023A4465C
:102D40000A4630BC1521604730B4C4681346A44617
:102D50000A4630BC17216047F8B50C464FEA00051B
:102D600014F8011B182924D00EDC152919D01629B6
:102D700017D0172923D120788DF800006A46012149
:102D80002846FFF7E1FF0AE0192912D0FE2916D1E3
:102D900022788DF800202921284600F031F9641CA2
:102DA000DEE722788DF80020EE6800232846B04741
:102DB000F5E70023EE681A462846B047D0E7F8BD8D
:102DC00030B4C4680023A44630BC1A4618216047BA
:102DD0002DE9F041DFF8B08014460646A1F1140257
:102DE000002798F800001D46062A4AD2DFE802F0C4
:102DF0002F03161B3E4310B13046FFF718FF304635
:102E0000FFF724FF00213046FFF719FF2146304627
:102E1000FFF715FF012088F8000029E02146304621
:102E2000FFF70DFF24E050B13046FFF700FF06E04A
:102E30001821304600F0EAF8183CE4B21835182C96
:102E40002A46F5D82146304600F0E0F80EE096F824
:102E50002400FF2802D1782086F8240037692B4609
:102E600022463046BC46BDE8F041604788F8007015
:102E70000120BDE8F0810028F8D03046FFF7D7FEEA
:102E8000F4E70020F5E700005300002070B50023B0
:102E9000456904461A462821A8470023E5681A46D2
:102EA00014212046A84701224B21204600F0A8F813
:102EB000206829210279204600F0A2F800224B2147
:102EC000204600F09DF8206829210279204600F074
:102ED00097F801224B21204600F092F82068292122
:102EE00042792046BDE8704000F08AB80160897CD4
:102EF00080F822107047000070B50C46054600F0BF
:102F000019F888B9092C0BD00A2C01D0002070BD0B
:102F10002846FFF7BBFF05492846FFF71DFF03E0E2
:102F200003492846FFF7E2FF012070BDD69800084C
:102F3000D89900082DE9F0411E46144605460B2994
:102F400008D00D290ED00E291ED00F2927D0002021
:102F5000BDE8F0811AB12849FFF7FEFE4AE0264994
:102F6000491FF9E74AB124490C31FFF7F5FE2868FB
:102F700090F8130085F822003CE01F49491DFFF737
:102F8000EBFE2868807CF5E7FFF71AFF81212846D1
:102F9000FFF7D2FE21462846FFF7C6FE27E0FFF7DF
:102FA0000FFF707995F8221001EBC000C7B24021E5
:102FB0002846FFF7C1FE102040EA17112846FFF708
:102FC000BBFE07F00F012846FFF7AEFEB07940F0D8
:102FD000B0012846FFF7A8FE30793268C006010E1E
:102FE0002846FFF7B1FE641E14F0FF04F4D1284612
:102FF000FFF792FE0120ABE7B5980008002070476C
:1030000030B444690023A44630BC60472DE9F04148
:1030100015460E460446FFF719FE40212046FFF7ED
:103020000EFE27692B46324617212046B847204618
:10303000BDE8F041FFF7FBBD002180F82610704786
:1030400038B535493548FFF7AEF94EF20B33082253
:1030500000213248FFF7BDF84EF21F252B4608220B
:1030600075212E48FFF7B5F82D492C48FFF79BF93D
:1030700047233F2202212948FFF7ABF8294800786F
:1030800001281DD126492548FFF78DF90121234844
:10309000FFF781F90C2000900A23342202211F48F7
:1030A000FFF731F800211D48FFF775F947233F224C
:1030B00002211A48FFF78DF801211848FFF76BF934
:1030C0001948007898B1012413491448FFF76BF9A7
:1030D0004EF22223082275211048FFF77AF813498F
:1030E0000E48FFF760F9082211A332210DE00024F9
:1030F0002B46082275210948FFF76BF80B49074852
:10310000FFF751F908220CA32A210448FFF7EEF833
:103110000C48047038BD0000A23E0008B004002036
:10312000B66D00082C00002025000020F273000876
:103130004F6E6C696E6500006D697373696E672E02
:103140002E2E00005C0000202DE9F0412A4DDFF812
:10315000A480288800F012F9414600F023F9284C99
:103160000646264F606800F0F1F8394600F01AF97B
:10317000314600F047F800F0ADF86060A87800F044
:10318000FDF8414600F00EF90646A06800F0DEF8B2
:10319000394600F007F9314600F034F800F09AF8AB
:1031A000A060E87800F0EAF8414600F0FBF8064637
:1031B000E06800F0CBF8394600F0F4F8314600F052
:1031C00021F800F087F8E060287900F0D7F8414650
:1031D00000F0E8F80546206900F0B8F8394600F03C
:1031E000E1F8294600F00EF800F074F82061BDE81F
:1031F000F08100009A99993E260000203333333F36
:103200005C00002090EA010F48BF81F0004100F10E
:103210009C81421A3CBF801A89184FEAD0524FF065
:103220007F4C1CEA410FA2EBD15318BF9CEA026FFE
:1032300000F03B804FF0004C4CEA00204CEA0121AA
:1032400021FA03FC10EB0C0C1ED202F1FF325FEAF4
:103250001C2040EBC25038BF70471CF07F0F4FEA74
:10326000400C18BFBCF17F4F38BF7047C3F120033B
:10327000994008BF20F00100BCF17F4F38BF704774
:10328000A0F1C04000F055B94FEA3C00000A40EB05
:10329000C25028BF1CF0FF0F4FEA400CE6D018BF09
:1032A000BCF17F4F38BF7047EAE79CEA026F05D058
:1032B00010EA5C0F08BF00F00040704710B500F046
:1032C000F2F800BF64FBBE3E014800F0ACB900BF9D
:1032D0000000C07F41000B0ED3F19E0208D950F4CC
:1032E00000034FEA032323FA02F048BF404270472D
:1032F00010B500F0D8F800BF499224800020704734
:103300006FF0004282EA200070470000C10DD1F149
:103310009E0206DB4FEA002343F0004323FA02F04B
:103320007047004207D54FEA4001B1F1FE4F02D28B
:103330004FF00000704710B500F0B5F849922480B6
:10334000002070476FEA20007047000010F0004135
:1033500048BF4042B0FA80F310FA03F2C3F19D0374
:103360000BD051EAC35101EB1220530638BF70470E
:1033700000F1010008BF20F001007047B0FA80F3AF
:1033800010FA03F2C3F19D030AD0D90501EB122014
:10339000530638BF704700F1010008BF20F001005C
:1033A000704700004FF47F0C1CEAD0121EBF1CEACD
:1033B000D11392EA0C0F93EA0C0F00F0478090EAC9
:1033C000010F48BF42F480724FF0004C4CEA0020DD
:1033D0004CEA012102EB0302A0FB0113A2F500025B
:1033E000002918BF43F001035B0028BF4FEA3303F5
:1033F00042EB22425FEA132C4CEBC2502EBFBCEBD7
:10340000436FB2F57C0F70474FEA036CBCF1004F7D
:1034100008BF20F00100B2F57C0F38BF70470BD514
:1034200082F0FF0212F5803FC8BF704700F1C04034
:10343000D8BF00F00040704700F5000C5FEA4C0C6C
:1034400048BF7047B0F1C04000F073B890EA010F78
:103450000CEAD11348BF42F48072624538BF63451D
:1034600004D280EA010000F00040704710B500F07F
:103470001AF800BF8900013E00F007B800F009B853
:103480005FEA410C5FEA1C6C08D080EA010000F0A2
:1034900050B85FEA400C5FEA1C6CF6D14FF0004078
:1034A000A0F5800070470EF1020E2EF0030E5EF8BC
:1034B000044B244204D44FEA4102B2F17F4F11D8A9
:1034C0004FEA4003B3F17F4F0CD80ED14FEAD07CC6
:1034D000B2F17F4F0CEB4C0C0CF1020C08BF4CEB23
:1034E000D17C04E04FF0080C01E04FEAD17C0CEBFA
:1034F0004C0324FA03F404F00704B4F1040C06D2DC
:103500000EEB840CBDE810404CF0010C6047DFE886
:103510000CF0070802024FF00040A0F5800010BD3B
:103520000846420018BFD2F1807288BF00F0004008
:1035300010BDFF2141EAD050C005704790EA010F4D
:1035400048BF81F000413FF564AE421A04D882F0D2
:103550000042A0EB020011444FEAD0524FF07F4CE2
:103560001CEA410FA2EBD15318BF9CEA026F4AD06C
:103570004FF0004C4CEA00204CEA012121FA03FCF8
:10358000B0EB0C0C0FD412F0FE0F36D05FEA4C00FB
:103590001DD5001240EBC25038BF70471CF03F0FE2
:1035A00018BF70470BE0A2F101025FEA1C2040EB5C
:1035B000C25038BF70471CF07F0F18BF7047C3F16F
:1035C0002003994014BF401E20F00100704780087E
:1035D0004FEA122308BF7047B0FA80FCA2EB0C023E
:1035E000CCF1280C60FA0CF093EA122F04BF00EB28
:1035F000C25070474FEAC3707047130A5FEADC108D
:1036000008BF7047F6E79CEA026F04D010EA5C0F2F
:1036100008BF0020704710B5FFF745FF40DFF63EBA
:1036200081F0004070470CF00F03092B08BF082001
:1036300000F051800A2B0BD0082B18BF704708BF31
:103640001CF0400F0AD04FF000004FF0000170470F
:103650001CF0400F18BF4FF0004070471CF0100FD7
:1036600008D020F0704300F07F4242EAD3014FEAD5
:103670004370704700F0604021F07F4242EA000250
:1036800001F07F4040EA727070474FF0FF0212EA8B
:10369000D0521CBF92F0FF038B42C2BFD14200EB5D
:1036A000C1507047002A0AD0002B0BD0002900F02F
:1036B0000040A4BF40F0FE4040F40000704700F01E
:1036C0000040704743024FF00B0C18BF4CF0806C69
:1036D0007FF4FAAD70471CF4801F11D01CF4E02F6A
:1036E00003D06FEACC31490070474FF04050EFF300
:1036F000008222F0704242EA000282F300887047A2
:103700004FF0000070475F00030203040305040547
:103710000A00FE07FE07000142028803B6200500EA
:10372000620721073943C7A00422079B5247620959
:10373000230E3D424F294906A53228A52401240C19
:103740003D4257B6D4B624D92200250C3D424FA4A1
:1037500074ABB4480900260D3D424F964449564982
:10376000A4480927061953C7002808BB425752AA84
:10377000152909BB424756AA94002A0A2D464796A6
:103780005406A52D2B0A2D4657180D5218012C074B
:103790009B3E8F52022D060D4EC7202E089B3E4F9A
:1037A000B224002F083D4267AD6308300B3D4257FD
:1037B00096D46C492D02310A3D4257262561D3200B
:1037C000320C3D42CF92859194858300330C3D426B
:1037D000C7206699AA250B00340C3D425F2625A51B
:1037E00064D0C204350B3D42C73131855AB2003630
:1037F0000C3D4297948589494B1600370B3D42C7D3
:1038000020666156CC00380C3D42CF9269C992695E
:10381000C902390C3D42CF92498A126691043A0A94
:10382000BB3E4FB2A4C992003B09BB3E4FB2A44A73
:10383000093C08BC425FD4D8003D081D4AC7A00E11
:10384000023E08BC4247D8D4063F0A3D42CF9235DB
:10385000E65004400C3D42CF92494B62491700416B
:103860000C3D425796D4B461C8B400420D3D42C7E6
:103870001055A264AA448302430A3D42CF92896D47
:10388000C902440F3D42C71055A2244AA2241A146B
:1038900000450B3D42C7311C92301C04460A3D4294
:1038A000C7311C92B008470B3D42CF9289A52D59D4
:1038B00000480A3D4247661B86CC164908BB42C7F2
:1038C0001275194A0A3D42D716B64491044B0D3D74
:1038D00042472625252D892A59004C083D4247D8C4
:1038E000E3204D0B3D4247A62D4BA2D9024E0C3D85
:1038F0004247A64D4A226D5A004F0A3D42CF927967
:103900004B1600500C3D42C79064DAA0844500512C
:103910000A453ECF9279A9AC01520D3D42C7906451
:10392000DAA0942A5900530B3D42CF92A9AB962CB2
:103930000054093D42C720853D0155093D4247E6F7
:103940005BB200560D3D4247664B4A4994641100F4
:10395000570A3D4247E69228C92D580B3D4247A6DB
:1039600025B54A4D0B590A3D4247A625B5B0095A1F
:103970000A3D42C720661D07015B08BB42C71075A0
:103980001A5C083D424798760C5D08BB42C7D46973
:10399000085E081D525796D4025F060D3EC7206090
:1039A00006125B4714610A2D42CF9A0C5A32046208
:1039B0000B3D424758316993A200630A2D42CF92D2
:1039C0008959B200640A3D4267C5B4498A12650A42
:1039D0002D42CF920D43BA00660B3D429754C986E3
:1039E00028AC01670C3D3ACFA069C9106AC90268CA
:1039F0000A3D4247583169B6006908BB424F28B5B5
:103A00000C6A0BCC3A5FACD5242951006B0B3D42BC
:103A100047589392A992056C08BB4287D4CB006D9E
:103A20000B2D4287D2A2244AA2056E092D4247627D
:103A3000D26C016F092D42CF92D99205700C3D3A9C
:103A40004762D22645094300710A3D3A8F699314B3
:103A5000252C72092D424762128B0073092D42CF2B
:103A6000921E1400740C3D424F980D51588A140058
:103A700075092D4247E6A42801760B2D4247A6255D
:103A8000A5248B00770A2D42476649942E00780AB8
:103A90002D424796D42AB500790C3D3A4766529498
:103AA000504B16007A092D42C7A0B50D027B0ABC07
:103AB0004297122662140A7C063943C7217D0BBC4B
:103AC000428718854A9848007E091D524FA4245207
:103AD0000200000004FFFF00005F00020203040375
:103AE0000504050C00FE07FE08FF0139028503AC42
:103AF0002005006A072107394367A80022079B5663
:103B0000275901230B3542AF1AAA4C69A80A240D84
:103B10004D3E37AF4AE59D54B5230025093D424748
:103B2000CEDC3905260C3D422FA7987295645401CE
:103B30002705195767280ACB3E37C514EB98032988
:103B40000BCB3E27C71CAB9822002A0A3D42B7AADE
:103B5000765ECD082B0A2D4637A3386446112C0714
:103B60001B3E4F8D042D060D4E67082E06924267B0
:103B7000042F0C3D421FE58C728D7246003009BC4B
:103B8000424F45CFA4003108BB422FC9AE01320AD3
:103B90003D426FE58C727B08330C3D42676894B3FD
:103BA000863A2D00340C3D423FCB54A6A1334A0047
:103BB000350C3D42E74623C38C745A00360C3D4217
:103BC00057E68C46CA3A2D00370D3D42676894335C
:103BD000CA19651401380B3D426F659D56D66901BF
:103BE000390C3D426F659D4646394A003A07AA4264
:103BF00067C4113B09333ECF466A24003C07AB46FD
:103C000037D5053D081D4A676838043E08AB46278E
:103C10005725003F0A3D426FE536CA7404400C3D0B
:103C2000426F6535525223C305410A3D426F653DDF
:103C300046B603420C3D4267C42AA659C5A10043BB
:103C40000C3D426F658D32CA28A705440D3D426781
:103C5000C42AA698628A4301450C3D42E746198D65
:103C600094514643460D3D42E746198D94514619FD
:103C700001470C3D426F658D328A3B2D0048093D5E
:103C80004227DB63643B4908BB4267C5AE014A0C6F
:103C90003D4277679451466594004B0B3D4227CBDC
:103CA00054EA14AB1C4C0E3D4227A38C32CA28A305
:103CB0008C86004D093D4227AF95B43B4E0A3D42EC
:103CC00027EBA992DC3A4F093D426F65EFB40050F3
:103CD0000D3D4267A4AC87CA28A38C00510A3D421F
:103CE0006F6557925105520B3D4267A4AC872AABD2
:103CF0001C530B3D426F650D37D46901540E3D4294
:103D000067C88C32CA28A38C220055083D4227FB85
:103D10004E0B560A3D4227BB5399720457093D4248
:103D2000277B25D505580A3D4227EB5457B50E5938
:103D30000C3D4227EB5467945146115A0A3D4267A5
:103D40006894BBD1105B08CB3E67C43E075C0D3D59
:103D50004227C38C32CC30A30C035D08CB3E67F600
:103D600039025E071D5637A73A5F060D3A670860AD
:103D7000069B562717610A2D426FC334741A0162DD
:103D80000C3D4227A38C46CAF65000630A2D426FB1
:103D9000658D725A00640B3D421F659486B6D30848
:103DA000650A2D426FE5A1325C00660B3D42575615
:103DB0007967945106670B3D3A6F653B8D8CD20253
:103DC000680B3D4227A38C46CAEE006908BB422F10
:103DD00023D91A6A0ACC3A3F63DD9649016B0C3D40
:103DE0004227A38CB24CB3CA016C07BB4247F61AF8
:103DF0006D0A2D4247B5545249156E082D42279938
:103E0000DA0E6F092D426F653B2D00700C3D3A674D
:103E1000A46C0F95514600710B3D3A6F683B8D8C39
:103E2000320A720B2D4227991A65941100730A2DDC
:103E3000426F68B8E15000740C3D4237A3386446C5
:103E400019652875082D42273B950A76092D4227CA
:103E5000DBA98E0077092D42275B49750178092D72
:103E60004227A7BAAA03790A3D3A27DBA96E2300A5
:103E70007A082D4267E8F6107B09CB3E37C52AC782
:103E80003A7C06493FE7017D0ACB3E27C73AC52A5F
:103E9000027E091D4A2FAA24130000000004FFFF20
:103EA00000001200030304040403050C0C00FE00D0
:103EB0000000000000000000020000001CE064059B
:103EC00089E0C90572E12E05D6E1930549E1F806BE
:103ED000AAE25D0623FFFFE00009884A8EFF430047
:103EE000E0010C884A8E0722C7C38100E0020C88DB
:103EF0004A0ECA23E5917219E0030E884A8E1FE824
:103F000010158A84A200E0040D884A8E1FE89043B1
:103F10001C7208E00511884A0E8984A20E51A1A8DE
:103F20004354280AE0060C884A0ECA97E9E1C1000A
:103F3000E0070D884A0ECA8F9448254449E0080DD1
:103F4000884A0ECA8F9448AD9200E0090D884A0E47
:103F5000CA23657AA45C06E00A0E884A0ECA97391D
:103F6000448522A128E00B12973A3E69242925DBDB
:103F70002C92292D121401E00C0F854BAE604412D7
:103F8000914494844900E00D10884A3EB1302249A2
:103F9000D239128C9100E00E0F983A3EB19448331A
:103FA000A98C8AE300E00F10884A2E9A6462AA1155
:103FB0000F111B0900E0100C884A8E0F26D3E1C1B7
:103FC00000E0110E884A8E83C97438904C0703E0D4
:103FD000120E884A8E83C94432914C0703E0130EB7
:103FE000884A8E8348D3E140D27410E0140E884A88
:103FF0008E834813C944D27410E0150E884A2E9A55
:1040000064E5F120B19100E01613884A2E5A30126F
:104010008A8962A28938128C9100E0170C884A8E36
:1040200003E5E3E18100E01810884A8E83581413F9
:10403000C54413B1F820E01910884A3E6944265956
:1040400039466C541900E01A14884A3E692816094A
:10405000454231D12431168ACA00E01B13884ABE7A
:104060009074121A4662925828188A4A01E01C116C
:10407000864BAE94D924328B446491586804E01D79
:104080000E854B1E1945461151482200E01E11872E
:104090004A9ECA212A0AC922A290345201E01F1066
:1040A000874A9ECA212A9948251369A402E0200C58
:1040B000874A8E48F6C3F74806E0210E884A0E89E3
:1040C0003AE4F0810ED100E0220F884A0EE184121A
:1040D000317989508602E0230E774A0ED96412297D
:1040E000B544D604E0240C884A8E70C4E49770006E
:1040F000E0250C774A8E68A4D44B3400E026128861
:104100004A0E898428224528124A8824A428E027B8
:104110000F884A9E78A44DA4AD52894700E0280C30
:10412000774A8E48F6C37B2403E0290C874A9E4ACF
:1041300054F5F02100E02A0F774A8E4364223D486F
:1041400026D24300E02B10884A8E8384223E4C28DE
:1041500062F14100E02C11874A9E8A6C32914C2416
:104160006B924A3400E02D14884A8E5A30448AC437
:1041700042A488281299A41C04E02E0B854B9ED1E2
:1041800098B4A500E02F0B864B1E12BDC4C500E0FD
:10419000300A864B2ED151C703E0310C864B2ED10D
:1041A000512524513CE0320C864B2ED1511292E81D
:1041B00078E0330B864B2ED151A28F07E0340C8769
:1041C0004AAED121AAEB2100E0350F874AAED121BA
:1041D000AA129388A48700E03610874AAED1212A1C
:1041E0008949449289F410E03710874AAED1212AD8
:1041F0009948269289F410E0380D684A8E4B3412A3
:104200005D8D5C00E0390F684A8E4B349236114D5B
:10421000231700E03A0F684A8E4B3412114D562393
:104220001700E03B0D684A8E4B3412D9357201E01D
:104230003C0D784A8E4B3412DD1AB900E03D1078FF
:104240004A8E4B34129DC426A269E402E03E1078E7
:104250004A8E4B349236114D56231700E03F0E78AC
:104260004A8E4B3412D9D7C80500E0400EA63BCE8B
:104270004499F03094091301E0410E864B9E50960C
:10428000C38142138A00E0420C685ABEE1A164B4C3
:104290008D00E04310884AAE612816ABE54609451B
:1042A0006700E04409446CBEC92416E0450E665B15
:1042B000DE58641299A445A201E04613884AFE68BC
:1042C0002416894C5226D922A9917800E0470A6524
:1042D0004D3E19858B00E04811884A6E35894C4265
:1042E00091502414094501E04909444C0EAA4802A2
:1042F000E04A0B664B0E3B1D241401E04B0E884A2E
:104300008E431C6407D2C16A00E04C0D864B2EA17F
:1043100028A263842632E04D10884A2E5A30125665
:10432000269926220900E04E0B854BCED8E12126A6
:104330000CE04F12874BCEA8A852894C42926824B9
:10434000160A01E0500D874ACEA8A8E225260E01E4
:10435000E0510B754BCED8E1301306E0520F774A8F
:10436000CEA8A852894CA2292100E0530D774ACE4D
:10437000A8A8E212138700E0540D864B8EA06C446F
:1043800069A20D03E0550E884ABE2495C9E1505933
:10439000524BE0560D884A2E9AE5F081622301E0E7
:1043A0005709884A8EFF4300E0580D844C8E986868
:1043B00072A0886200E05909854B0E097F11E05A0E
:1043C0000E864B8EE08C54A99066C200E05B138889
:1043D0004A8E584C249A4C0E87CA44248AC500E061
:1043E0005C11884A2EA76028180A4664A59A040022
:1043F000E05D12884ABEB02842AB442A915A481464
:104400000C02E05E0D674A8E58C872B8544300E053
:104410005F0D674AAE58E470B0D48200E0600D884A
:104420004A3E29CD7208113901E0610D884A2E22D9
:10443000A743C4469501E0620E884ACEB8E8727878
:10444000908A6300E0630E884ABEB0F4F02039C958
:104450008300E0640E884A3E29CD72081159290074
:10446000E0650D884A3E46A643C4469501E0660EC7
:10447000884A3E29CD720811D96800E0670E884A43
:104480001E2A91E910B1516500E0680F884ACEB844
:10449000CC727890C4C43100E0690F884ABEB0D4B1
:1044A0007238484EB24400E06A10884ACE584C74C4
:1044B000391C2456710C00E06B0F884ABEB02C7278
:1044C0007890D8E44100E06C0B764B2E19C542E29F
:1044D00002E06D0B764B1E12170B4D04E06E0C675D
:1044E0004ACE90E570B08600E06F0C674AAEE8E116
:1044F00060310501E07010884A8E43C412A14C243B
:10450000A5C38301E07110884A8E83783809454439
:10451000CAE28300E07210784A8E43C412A14C2490
:10452000A5C3A100E0730F784A8E8378380945440B
:10453000CA0701E07411884A0EF14424214528136A
:1045400091846632E0750C764B2E198926A31C0ADD
:10455000E07611884A8E83843291944C15C9847216
:1045600010E0770D864B1E8A88D36124A100E07885
:104570000D864B1E8AE830E224A100E0790F884ABC
:104580002E9AE530241E26361200E07A0B764B2E4A
:1045900019C5426223E07B0C764B2E0A89C5421373
:1045A00001E07C0C764B2E19C542622101E07D0CA6
:1045B000764B0E1A89C5421301E07E0D674ACE582C
:1045C000E570B0C44200E07F0C674AAE68E5703128
:1045D000C502E08010774ABE68242691CC22B569D6
:1045E0000C00E0810B774A8EC3C4EDF010E082111D
:1045F000774A0E4984261A4526A1918C1211E08330
:104600000F774A9E70844D22A350C21100E0840BA4
:10461000585A8E4B74F52001E0850D585A8E4B7414
:10462000229A1E2400E0860C585A8E4B74B27A905F
:1046300000E0870A764B2ED151E301E0880C764BDF
:104640002ED1511292281EE0890B764B2ED151A209
:10465000E301E08A0A754B9E894D9B01E08B0B7547
:104660004B9E894D252233E08C0D754B9E894D1252
:1046700091446406E08D0A854B9E894D3703E08E98
:104680000D854B9E894D252289C80CE08F0F854BE7
:104690009E894D12914424119901E0900C684A9E24
:1046A0004B7435128D1CE0910E684A9E4B7416199E
:1046B00049522307E0920D684A9E4B742459498D54
:1046C0001CE0930C684A9E4B74B2253572E094113D
:1046D000884ACE2451AC12A9446A94903806E095D9
:1046E0000D874AAEB02CE2A5240D02E0960D764B64
:1046F0008EA06C4429D18601E0970E784ABE24959D
:10470000C981B2A49600E0980C774AAE59E5F05200
:104710001B01E09908774A8EFF00E09A0C744C8EDA
:1047200098687211C500E09B09754B0E09BF08E03F
:104730009C0D764B8EE08C5421CD8401E09D127847
:104740004A8E584C249A4C0E948948148B01E09E52
:104750000C963BCE4499CCA69808E09F0D884A8ED3
:104760008358F34126B400E0A00D664B1E8AE41086
:1047700021592800E0A10E884A3EB1944833A98C03
:104780008A02E0A20B664B1E8AA4ED4201E0A30F51
:10479000774AAE994432B11D22B51100E0A40D75DF
:1047A0004B1E19454611914400E0A50F764BAE947F
:1047B000D924532C120B8D00E0A60B764B1E4A50C9
:1047C000F17028E0A70C864B8E4388D3617408E013
:1047D000A80C864B8E43E830E27408E0A90F684AC3
:1047E0002E5A3012D21409C64800E0AA0F874AAEEA
:1047F000594512A1440E0F930CE0AB10884A2E9A33
:104800006554915024A5898D04E0AC0E664B0E5280
:104810002C321245269103E0AD0E884A1E4B587388
:10482000841215C700E0AE11884A3E692826928C92
:104830004C135B282A03E0AF0A764B8EA3E249644F
:10484000E0B011764BBE504814491A452222610847
:1048500000E0B10C884A8E5A978B58D600E0B2130C
:10486000884A3E29CD7288044311492822095900FB
:10487000E0B309834C8E879801E0B40B784A8E83AD
:1048800058E78300E0B510784A8E832C24AB85640A
:10489000B5D04100E0B610784A8E83587C988422C7
:1048A0009250E420E0B70C784A8E8358F9303E08E5
:1048B000E0B812784A8E832414394C4291C32414F0
:1048C0003908E0B90D784A8E5A6E15792CAD00E0A2
:1048D000BA12784A8E832826324522A20829123934
:1048E00008E0BB12784A8E832826324522A2892806
:1048F000123908E0BC10784A8E832C243B8864B5BA
:10490000D04100E0BD12784A8E832C240B1D26A1D5
:104910008824143908E0BE0F784A8E832C240B9922
:10492000C4E28300E0BF15884A3E6928168C1C2229
:10493000C15044128A48421600E0C011774A0ED98D
:104940006492168A856291C89A00E0C113884A0E63
:10495000E18492180A8682A1602442190AE0C210FA
:10496000774A8E68A4140BC542B150251AE0C312D1
:10497000884A8E70C4140C0543C15030640907E0A6
:10498000C40D774A8E48F643F4108F64E0C50E8755
:104990004A8E48F643547A884732E0C60F774AAECB
:1049A000594512A1440E874906E0C70D774AAE5912
:1049B0004512393C4C32E0C80D874AAE5945123990
:1049C0007C9864E0C90F774AAED06C49124A0B0557
:1049D0008500E0CA14884ABE903492140946629257
:1049E0005828188A4A01E0CB11774AAED02C128B96
:1049F0008424A1B4505008E0CC11864BAE945924C5
:104A0000B748441689854600E0CD0F764BAE9459E1
:104A100024A75824161A01E0CE10764B9E596492B2
:104A2000169924C5422300E0CF12864B9E5964920A
:104A3000169924C522B1D00800E0D012884A3E69F8
:104A400028168C8C4689A160284802E0D112884A39
:104A50002E6228180A86422BC158282A03E0D20F5A
:104A6000884ACEB8A8922CB644C53100E0D310884D
:104A70004ABEB0346216472225791000E0D4107780
:104A80004ABE682496B2140946822300E0D5117705
:104A90004AAE612418094D26B194680C00E0D60E88
:104AA000774ABEB088925A094A6300E0D70F774A26
:104AB000BEA830528D4448E21800E0D810784A3E33
:104AC000692426AAC544A4485806E0D911884A3E5C
:104AD000692418AA650C9122611900E0DA0E864B50
:104AE0009E505E8E91504C2802E0DB0E764B9E501D
:104AF00096632414138A00E0DC11784A2E5A30128F
:104B00008A84626994608C04E0DD13884A3E6928D7
:104B1000188A0543C148482514190AE0DE12884A5C
:104B20002E5A30124A0986628993608C04E0DF0FA6
:104B3000774ABE682418892545F23213E0E01688CA
:104B40004ABEB0282289892211512432898544C164
:104B50002000E0E113784ABEB028228989229149D9
:104B60002C240A0601E0E211874ACEA8681291457A
:104B700064114A9A3804E0E310774ACEA86812918B
:104B8000452869E21000E0E411864B8EA06C149178
:104B90008424215144360CE0E50F884ABE24952C2C
:104BA000224D919CD412E0E60F884A2E5A3012D63C
:104BB0001C09C64800E0E70B884A8E8358CF0701DE
:104BC000E0E80E844C8E982892A41211C500E0E90A
:104BD00009844C8E907E0AE0EA11864B8EE04C12DE
:104BE000124544114968260CE0EB12884A8E584C55
:104BF000248AE4A44B1691281603E0EC11774AAE00
:104C0000522C140BC522A249CA4802E0ED13874A70
:104C1000AE522C140BC542B1886892329200E0EE7D
:104C200009434EAE904412E0EF0D654CCEA44828E7
:104C300022894812E0F012874AEEC44830128A24D2
:104C4000452292144906E0F109334EAE902400E06B
:104C5000F20B554CCEA448282249E0F310774AEED7
:104C6000C44830128A244522920CE0F410764B8E10
:104C7000A06C1491844411D93000E0F50F784ABE3D
:104C800024952C22512427B504E0F60E774AAE591C
:104C90004A5435128B8D00E0F70B774A8E4354D778
:104CA0004300E0F80E744C8E9828922489886200A4
:104CB000E0F909744C8E903E05E0FA10764B8EE0D8
:104CC0004C12124524A1993000E0FB12784A8E580C
:104CD0004C248AE4A49245248AC500E0FC11784A59
:104CE0002E5A3012169328A148442401E0FD107872
:104CF0004A2E5A301216934C13910400E0FE0F779F
:104D00004AAEA658281611554A1200E0FF09834CF6
:104D10000EDBE110E10010774A0E52C412A3446882
:104D2000114B8800E1010E664B8E51A41222452AD8
:104D3000A101E1020E684A8EC370128A88940F02A4
:104D4000E1030E684A8E43C412A10C0F0702E1046E
:104D50000F884A3E29CD7238486C541900E1050D80
:104D6000774ABEE8AC72A94D6300E1060E884A1E80
:104D700091E4F08162A3CA00E1070E784A1E91E433
:104D8000F030B1516500E10812874ABE682496B23E
:104D90001409468291E00800E10912874AAE6124B5
:104DA0001809464293492C251A03E10A0E784ACE87
:104DB000B8A8926C898A6300E10B0F784ABEB034C0
:104DC000628E444AF22000E10C12874ABE70309293
:104DD00029240A4923B1D80800E10D11774ABE60A1
:104DE00024534814924662B11100E10E10774ABE76
:104DF00068249672898522491500E10F0F764B9E33
:104E000050CA24949749280500E1100A754BAE90CA
:104E10004D9B01E1110B754BAE904D252233E112F4
:104E20000D754BAE904D1291446406E1130D585A26
:104E30008E4B34129D462E00E1140D585A8E4B3481
:104E400092368D5C00E1150E585A8E4B3412114D7E
:104E5000231700E1160D585A8E4B3412598D5C0001
:104E6000E1170C585A9E4B741A89460EE1180C58DB
:104E70005A9E4B7416498D1CE1190C585A9E4B745E
:104E800024498D1CE11A0C585A9E4B7432498D1CD2
:104E9000E11B13884ACE24512C32499224C9229214
:104EA000903806E11C12784ACE24512C32499245A2
:104EB0002421710C00E11D12874AAEB02C12A1C44E
:104EC00024314964240D02E11E10774AAEB02C1241
:104ED000A1C42491913408E11F0C674ADEC835143F
:104EE000BD4401E1200E774A8E4374369948A58768
:104EF00000E1210C774A8E4B25B2767810E1220D25
:104F0000674A8E43743699480F01E1230C674A8E35
:104F10004B25B2763808E1240F774A8E836C9222B3
:104F20000A49A58700E1250E674A8E836C92220A02
:104F3000490F01E1260C575A8E836C32911E02E113
:104F4000270B575A8E4B25B27610E12810774AAEC0
:104F5000594A28A4228DC4622300E12910774ABE51
:104F6000682416C924494B89C600E12A0E774A8E67
:104F700043541452914A0F01E12B0C854BAED8A437
:104F800014CC0900E12C0C854BAE604E95590800FD
:104F9000E12D0C585ADEB8E410158700E12E0C58AC
:104FA0005AAEB0F410914701E12F0F864B9E50CAC4
:104FB00024945F26A11400E1300B884A8E8358CFD9
:104FC0000701E13111884A8E832C24AB8564215975
:104FD0002D7410E13211884A8E8358F93009452426
:104FE000A1C84100E1330E884A8E83587C181FC641
:104FF0000701E13415884A8E832414394C42114943
:1050000028729884220701E1350D884A8E5ABE9C89
:10501000E2B1B402E13614884A8E8328268A894C8C
:10502000918828428A440E02E13714884A8E8328E8
:10503000268A894C918868228A440E02E1381088B9
:105040004A8E83282632C56A2253EC20E13914881F
:105050004A8E832C240BC9428749282209450E0217
:10506000E13A10884A8E832C240BC94226B1F820DD
:10507000E13B0B754BAED8A414CC04E13C0B754B53
:10508000AE60A6CA2C04E13D0B575ACEB0E4280D01
:1050900001E13E0B575AAEA8F0220E02E13F0E6826
:1050A0004AEEC8211C0A1F226100E14010874AAE67
:1050B000594A16498A543A894C32E1410F774AAE2F
:1050C000594A16498A74129964E1420F874AAE59C7
:1050D0004A16A9EA2432C900E1430E774AAE594A7A
:1050E00016A974129964E1440E774A8E43546522DE
:1050F00049916431E1450F774A8E435465229948BE
:10510000261103E14611884A8E83580B45128A48BE
:105110004291C801E14710884A8E83580B451251CD
:1051200089482207E1480E774AAEE1E87088A41C5E
:105130000E01E1490E874AAEE1E8F01049391C0240
:10514000E14A0D784A8E8358F920135A00E14B0D3D
:10515000864B8E439D4407094500E14C0E684A6E1C
:10516000998422A1A849C402E14D0E774A2E92E407
:105170002029114D1400E14E0C774A5E19E560B10B
:105180005105E14F0D774A0E29CD72B0D0A400E150
:10519000500F784A3E6944265993D8A83200E1510D
:1051A0000F774AAE994432B11D22B51100E1521079
:1051B000784ABEB02842AB446A21513008E1530F0F
:1051C000884A3E29CD7238488C521200E1540E783C
:1051D0004A3E29CD728818A52400E1550D784A3E33
:1051E00029CD7208119900E1560D784A2E22D3215B
:1051F00062A3CA00E1570D774ABEB0C872304A6355
:1052000000E1580D774ABEA8F06031896300E1598A
:105210000D684A3E29CD7288430E01E15A0A674A59
:10522000BEE8AC723FE15B0D684A8E4B34125D8D77
:105230005C00E15C0F684A8E4B349236114D2317A7
:1052400000E15D0F684A8E4B3412114D5623170052
:10525000E15E0D684A8E4B3412D9357201E15F0E62
:10526000754B9E8984729050241300E1600A744C3F
:105270001EC9481702E1610B754B9E899A485B0174
:10528000E1620D754B9E899A6448914C00E1630F71
:10529000764B3ED9282209496C420900E1640C751D
:1052A0004B8E1B5146914C00E1650C754B2E6D14D5
:1052B00009453201E1660C754B8E9A482692290108
:1052C000E1670F754B9E898422994828920900E175
:1052D000680D754B9E898422A1899400E1690E8630
:1052E0004B1E8A88C54222492800E16A0A844C1E66
:1052F000C9482F04E16B0C864B1E8A4828D3D10085
:10530000E16C0F864B1E8A48289A0A49120A00E16E
:105310006D0F864B3ED9282209496C421500E16E7B
:105320000E864B8E4350581592241400E16F0E8662
:105330004BAE914C581131492800E1700C864B0E50
:10534000A39A50265402E1710F864B1E8A8824A12D
:105350008898241400E1720E864B1E8A8849529464
:10536000894600E1730D764B8E438872A8900E013A
:10537000E17408734C9E8A1EE1750B764B0EA3F008
:1053800030141AE1760C764B0EA3F010141E02E1D5
:10539000770B764B0E11D321A801E1780C764B8E5A
:1053A000435068141E02E1790D764B8E4350780805
:1053B000910E01E17A08764B0EA33EE17B0E764B0F
:1053C0008E438824A188488700E17C0B764B8E436E
:1053D0008874086AE17D0E864B8E438852B154482A
:1053E0008700E17E09844C2EC9490FE17F0B864B73
:1053F0000EA3F0305434E1800C864B0EA3F0105411
:105400003C04E1810B864B0E11D321A803E1820CF1
:10541000864B8E435068543C04E1830D864B8E438B
:10542000507808311D02E18408864B0EA37EE18589
:105430000E864B8E438824A188980E01E1860D8646
:105440004B8E438874082A1E02E1870D874B8EC35A
:10545000A46471A91D04E1880C874B8E836C32E92A
:10546000F510E1890F874B8E836C32215D246B0729
:1054700001E18A0F874B8E03A544894C2B9683004C
:10548000E18B0E874B8E435462BC48D60E02E18CF2
:105490000F874B8E836C629C4C246B0701E18D0E51
:1054A000874B8E43D452B1542C8701E18E0F874B2A
:1054B0008E836CB2369948D60E02E18F0F874B8EE1
:1054C000836C32912C5A660701E1900E4A591EA155
:1054D00084740851841200E1910A445C1EC921229F
:1054E00001E19208525D0E1201E19308624D0E2215
:1054F00001E1940B565B0E11492C2209E1950C66D3
:105500004B0E11490E159104E1960E864B0E114972
:105510002C2289452401E19712874ACE48302289FE
:105520009822A3B488651401E19812884AEE484C89
:105530001299A46C8A2599461100E19912884ADED5
:10554000884C12D9141AC5924CA30800E19A12880B
:105550004A8EB0F8208948222A8749306401E19BAD
:105560000D884A1ECBE1C3442C9702E19C10884A67
:105570008E5AA6832C240B99920E01E19D15884A20
:105580009E602C1433452491832414915042490089
:10559000E19E0F884A8E079958769848888701E1DE
:1055A0009F0D884A1ECBE1617215A701E1A0148806
:1055B0004A2E9A4842B94424A188243409CD48008F
:1055C000E1A111884A1ECB412C098A6292A038625F
:1055D00001E1A210884A1ECB412CA188251471C478
:1055E00002E1A311884A1ECB412C0945C4128A3816
:1055F0006201E1A40D884A0ECA3BE872A45C06E190
:10560000A50E884A8EC9173A448522A128E1A61022
:10561000884A2EA76028180A868224D300E1A70CA6
:10562000884A1ECBE103C5AA06E1A81179498EC3B9
:10563000A4B2528954522695C300E1A911C62B8EFB
:10564000A87046AA1C0E13D24C1805E1AA0BC62B53
:105650008E705E837905E1AB10C62BDEA06C4439F9
:105660001C2625DA501AE1AC0AC62BDE605EC3792F
:10567000E1AD0CC52B8EA06C4439FC50E1AE0CC5DD
:105680002B8E3F5448336100E1AF0F79499E4B3C6C
:10569000548B06E7484100E1B00B864B1ECA51A26D
:1056A0008F07E1B108C12D8E4301E1B210884A8E07
:1056B00043AC48911C221262ED10E1B312884A4EAD
:1056C000692418328546C1D02C121601E1B4108726
:1056D0004ABE70743893886291093500E1B511862D
:1056E0004B2E512449229A8D2493341100E1B61295
:1056F000884A0EA128552651A2592214912800E16A
:10570000B713884A0EA12831149228D12C21512494
:105710001801E1B811884A8EF07042398C4407892B
:10572000254209E1B910884A2E1A2542B11C0F12F0
:105730001B0900E1BA12884A8EF084240B8D629313
:10574000506932110AE1BB10884A8E83580B45120A
:105750005189482207E1BC0F884A2E5A3012D61CC4
:1057600009C64800E1BD0F684A0E89301E8704450E
:10577000953000E1BE0F684A3E89381E09864AE12D
:105780000800E1BF11884A8EF07042398C4413152D
:10579000A30C00E1C015884A1E5924240A51222274
:1057A0002D11524814894900E1C112884A8E98454A
:1057B00092421A298D2829125B00E1C20D884A2ED7
:1057C0009AE5F081622301E1C30F884A2EDA28426C
:1057D000EB1619C54800E1C410884A2E9A48722079
:1057E000394D44321200E1C50C884A8E03E970F24B
:1057F0007420E1C60D874A8E890BF5F010A900E1EF
:10580000C70F884A0E319558A44AC291B000E1C82A
:105810000F884A2E5A3012161F44442600E1C9153B
:10582000884A2E5144141A8528214A68141A258959
:105830002200E1CA13884A9EA128160C4543D15084
:105840003016124E00E1CB11884ACE612C1493C45D
:1058500026A69028710AE1CC14884AEE68288B2885
:10586000121145925282A1700400E1CD1299399E25
:105870009C22590EF349CA7C92323F0CE1CE10981B
:105880003A9EB8B25C4A93C84412A100E1CF0D978A
:105890003A8E522C14A3EA7A08E1D0147C488E8305
:1058A0001D26874424B1C821323B4C0E07E1D11498
:1058B0009B388E431D248BCA84B299A22C2A071DC3
:1058C0000AE1D2117B488E432D2A13CA668AB2E8B8
:1058D000A100E1D318AC381EB1E8303A4C0E0F7578
:1058E000084524A18824CA421B00E1D415AB38CE58
:1058F0007995148B47B4D02F2A1195A0443E04E12A
:10590000D511A9390E1B454499100FD583F5703078
:10591000E1D6139A390EF2817687C82172881C224B
:10592000871C08E1D7129A398E031D2287C821727D
:10593000C8E18D4C03E1D81A9C389EC3280E09C5D6
:1059400021A138241487C40EB13824523A1C06E130
:10595000D9138B480E7AA8160F852EE9F3485C728E
:105960001001E1DA179C388E83250E298624B19127
:105970002852911C22873BEC60E1DB0F884A0E62C3
:1059800048161A3DD9A82200E1DC189B380E8A304F
:1059900024918526A28BE822B2C82852891C1403C0
:1059A000E1DD169C388E83251C2153C291C3251C32
:1059B0002153C2918301E1DE189C388E83459245C4
:1059C000258B4A16952C2A5954B2A8643918E1DF60
:1059D000119939AE17A1E4303C1C2CE1900900E18B
:1059E000E00A8A490EF2E1FF00E1E1158B480EFA68
:1059F0002176104D439283E4103A840E3100E1E2A7
:105A00000B973A8E7F98D4A601E1E30E973A8E4326
:105A100054A7902465360DE1E410A73ABEE8AC54D3
:105A200039485C28B51100E1E515BB287E881C4289
:105A3000AE46A69368D7C858129F4300E1E6159971
:105A400039AE9ACA41120D453245324532454317A7
:105A500000E1E7118A498E03297AA8882E128BE487
:105A60007438E1E81CBC284EBAB5148B43224A12A4
:105A70003AE424A188249288481214C98900E1E9F3
:105A800019CC28EE7A642C2651922373C848DF6122
:105A900091102926141301E1EA0D884A1E1B2924BE
:105AA0001A963C0DE1EB148A499E43E47039880E46
:105AB000A143E470881C2200E1EC148B488E384C22
:105AC0000E93C3E42039440E91838206E1ED13A9BD
:105AD000390E5B50148C24D62515B9A4223F0CE155
