:020000040800F2
:10000000E823002075020008712B00085128000821
:10001000192A0008F51E00083169000800000000D8
:10002000000000000000000000000000335D000838
:10003000E323000800000000E54F000811630008FA
:100040008F0200088F0200088F0200088F0200084C
:100050008F0200088F0200088F0200088F0200083C
:100060008F0200088F0200088F0200082923000871
:100070008F0200088F0200088F0200088F0200081C
:100080008F0200088F0200088F0200088F0200080C
:100090008F0200088F0200088F0200088F020008FC
:1000A0008F0200088F0200088F0200088F020008EC
:1000B0008F020008596400088F0200088F020008B0
:1000C0008F0200088F0200088F0200088F020008CC
:1000D0008F0200088F0200088F0200088F020008BC
:1000E0008F0200088F0200088F02000800F002F85B
:1000F00000F0B0F80AA090E8000C82448344AAF112
:100100000107DA4501D100F0A5F8AFF2090EBAE80F
:100110000F0013F0010F18BFFB1A43F0010318473B
:100120009CD40000BCD400000A444FF0000C10F82E
:10013000013B13F0070408BF10F8014B1D1108BF65
:1001400010F8015B641E05D010F8016B641E01F805
:10015000016BF9D113F0080F1EBF10F8014BAD1C55
:100160000C1B09D16D1E58BF01F801CBFAD505E073
:1001700014F8016B01F8016B6D1EF9D59142D6D3CD
:10018000704700000023002400250026103A28BFF5
:1001900078C1FBD8520728BF30C148BF0B607047F9
:1001A0006E2900F0F282702900F03D84662908F083
:1001B000D282652908F0CF82672908F0CC826129B4
:1001C00008F0CB8203681B0A28BF41F0800169292F
:1001D00000F0C680642900F0C380752900F0C0805B
:1001E0006F2900F0CA83782900F00984E92900F01A
:1001F0006583E42900F06283F52900F05F83EF292D
:1002000000F0C783F82900F008840368DB0928BFE1
:1002100041F08001632900F0F187732900F0F6872F
:10022000E32901F00180F32901F0068000207047E6
:100230001FB501F057F804000020002107F08EF8E8
:10024000401C60600020002107F072F8E0601FBDD4
:1002500010B510BD01F018F81146FFF7E9FF06F0E0
:10026000E9FF01F0F5F803B4FFF7F2FF03BC06F075
:1002700062FC00000948804709480047FEE7FEE7A6
:10028000FEE7FEE7FEE7FEE7FEE7FEE7FEE7FEE746
:1002900004480549054A064B7047000021630008E1
:1002A000ED000008E81D0020E8230020E81F0020E2
:1002B000E81F0020704700001CB50C46064B7B442D
:1002C00069460090204600F07AFA0446002069460C
:1002D00000F088FA20461CBD230500007CB51D46B1
:1002E00016460C00009001D02044401E074B7B4472
:1002F0002A4669460190304600F061FA05461CB175
:100300000020694600F06EFA28467CBDFD0400001E
:1003100070B5044685690068C10601D5302600E045
:100320002026C00707D070BDD4E901213046904790
:10033000206A401C20626D1EF6D570BD70B5044663
:1003400085690078C00707D170BDD4E9012120205C
:100350009047206A401C20626D1EF6D570BD0000DB
:100360002DE9F0410646002410687529314616A58E
:1003700010D000F076F9002802DA404213A507E019
:1003800031688A0701D512A502E0490704D511A5F5
:10039000012401E000F06EF900210A2206F1240791
:1003A00009E0B0FBF2FCB0FBF2F302FB1C003030C2
:1003B00078541846491C0028F3D123462A46304673
:1003C000BDE8F04100F088B9000000002D000000F9
:1003D0002B000000200000002DE9F05F8946044654
:1003E0004FF0000ADFF874B1FB44C0F820A02046AB
:1003F000E1688847002874D0252806D0D4E9012177
:100400009047206A401C2062F1E700265F462046A4
:10041000E16888472028054607DB312D05D2781989
:1004200010F8200C08B10643F1E7B00701D526F01B
:100430000406C4F81CA00027C4F818A02A2D09D06F
:10044000284606F071FB38B304EB8708303DC8F846
:10045000185019E059F8041B204604EB87029161FB
:10046000E1688847012F054618D1E069002820DAA5
:1004700026F020061DE0D8F8180000EB800005EB00
:1004800040003038C8F818002046E1688847054623
:1004900006F04AFB0028EED1012F0AD02E2D08D1FC
:1004A0002046E16888477F1C0546022F46F020065B
:1004B000C4DBA069002803DA404246F00106A061CF
:1004C000F00701D026F010066C2D0BD0682D09D056
:1004D0004C2D39D06A2D35D0742D35D07A2D33D0AE
:1004E00016E038E0E1682F4620468847B8420546C6
:1004F00009D16C2F26D04FF48060E1680643204676
:100500008847054604E06C2F1AD04FF480700643EC
:100510000DB3A5F14100192802D8203546F4006634
:100520004A462946204626604E46FFF739FE80B1EE
:1005300001280BD0F61D26F0070000F1080956E748
:100540004020E4E78020D8E70020D6E706F1040940
:100550004DE7284652E7206ABDE8F09F50CB0000E7
:1005600010B5203AC0F00B80B1E81850203AA0E84E
:100570001850B1E81850A0E81850BFF4F5AF5FEA82
:10058000027C24BFB1E81850A0E8185044BF18C935
:1005900018C0BDE810405FEA827C24BF51F8043BDC
:1005A00040F8043B08BF7047D20728BF31F8023B30
:1005B00048BF11F8012B28BF20F8023B48BF00F8C4
:1005C000012B70474FF0013C50F8042B51F8043BCD
:1005D0009A4221D1A2EB0C03934313EACC1317D117
:1005E00050F8042B51F8043B9A4215D1A2EB0C03AE
:1005F000934313EACC130BD150F8042B51F8043B6E
:100600009A4209D1A2EB0C03934313EACC13DBD03B
:100610004FF00000704700BFD01A01BAB1FA81F163
:1006200001F0180122FA01F0CB40C1F12001DBB248
:10063000C0B2C01A2CFA01F3D11A914311EAC311C6
:10064000E6D17047704770477047704710B500F0AB
:10065000F5F9006810BD10B5044600F0EFF904602C
:1006600010BD09684A0501D540B27047C905FCD5DF
:1006700000B2704709684A0501D5C0B27047C90584
:10068000FCD580B2704770B50C460546012A05D0EE
:100690002878800600D5EA69002302E0012305E0FE
:1006A0005B1C934202D2E05C0028F9D1A869E618ED
:1006B000C01AA861286A184428622846FFF728FE55
:1006C00004E0D5E9012114F8010B9047B442F8D3B6
:1006D0002846FFF733FE70BD2DE9F0470D469946D9
:1006E0009246044600F124080168880604D5E069B2
:1006F00021F01001216000E00120A84201DD471B2C
:1007000000E00027A1697A1902EB0900081AA0612C
:100710002078C00602D42046FFF7FAFD002608E044
:10072000D4E901211AF806009047206A401C761C83
:1007300020624E45F4DB2078C0060AD52046FFF73C
:10074000E7FD06E0D4E9012130209047206A401CF3
:100750002062381EA7F10107F4DC07E0D4E901218B
:1007600018F805009047206A401C2062281EA5F159
:100770000105F3DC2046FFF7E1FD2078000602D5F5
:100780000220BDE8F0870120FBE711680268006ADB
:10079000530501D508700AE0D30501D5088006E0AD
:1007A000130603D5C217C1E9000200E0086001206A
:1007B0007047000001694A1C02610878704700B563
:1007C0008FB0CDE901310021059105497944CDE98A
:1007D000031011466846FFF7FFFD0FB000BD000093
:1007E000E5FFFFFF0A6802F8010B0A607047D1E9D4
:1007F00000239A4202D2531C0B6010707047000015
:100800002DE9FF5F15468A460446DFF8AC80F844C0
:100810000027D8E900103E46CDE9001010E03AF874
:1008200016106A4602A800F00BFD411C07D0217883
:10083000890603D5E269391891420DD80744761C20
:100840002078800602D5E069B84205DDAE42E6DBDD
:100850003AF816000028E2D1A069C01BA06120462A
:10086000FFF756FDD8E90010CDE90010002017E091
:100870003AF818106A4602A800F0E2FCB0F1FF3F17
:1008800081460BD000250DF1080B05E0D4E90121CC
:100890001BF8050090476D1C4D45F7D308F101008A
:1008A000B0428046E4DB206A384420622046FFF7ED
:1008B00045FDBDE8FF9F00003EC700002DE9F04167
:1008C0008046D21D22F007020025D2E90002F52958
:1008D00015A614D0011E72F1000106DA0023D0EB38
:1008E000030063EB020211A608E0D8F800108B07A2
:1008F00001D50FA602E0490701D50EA60125114634
:10090000002408F1240704E000F09CF830323A5546
:10091000641C50EA0102F7D12B463246214640467C
:10092000BDE8F041FFF7D8BE000000002D00000038
:100930002B0000002000000030B4002100F124044E
:1009400008E002F00705D208303542EA4372DB08BE
:100950006554491C52EA0305F3D10468002310A230
:10096000250707D5A40600D421B1C46901230DA22F
:10097000641EC46130BCFFF7AFBE10B5044621460B
:100980001068FFF777FE02462046BDE810400023BE
:10099000D2E7D21D22F00701D1E90023CCE7000005
:1009A0000000000030000000F0B40D460188090589
:1009B00002D5214C7C4402E01F4C7C440E340021C3
:1009C00000F1240608E002F00F071209E75D42EA91
:1009D00003721B097754491C52EA0307F3D10278CA
:1009E0000023120704D5702D06D009B1022311345B
:1009F0002246F0BCFFF770BE01231034F8E770B553
:100A000004460D4621461068FFF734FE024629468B
:100A10002046BDE870400023C6E7D21D22F0070340
:100A2000D3E90023C0E70368126843F020030360A2
:100A30000823C3610023B7E7A0C500000048704742
:100A4000841D002030B5B0F10A024FEA900E71F11A
:100A500000034EEA817EB0EB0E0061EB91014FEA9C
:100A6000101E4EEA017E10EB0E0041EB11114FEA11
:100A7000102E4EEA016E10EB0E0041EB11214FEAF1
:100A8000104E4EEA014E10EB0E0041EB11414018A2
:100A900041F100014FEAD00040EA41704FEAD10134
:100AA00010EB80054FEA810444EA907444EB0104A2
:100AB0006D1944EB0404521BA3414FF0000348BFDF
:100AC0000A3200D530BD401C41F1000130BD7047F5
:100AD0002DE9FF4F0C461E464FF0FF378BB0D2E991
:100AE0000001DDF860800A908A46C1F30A5505B915
:100AF0003D46002108464FF00000BAF1000F00F417
:100B0000400005DA00EB80004FF4400101EA50009C
:100B10004FEA9059B9F1010F00DDB9460A9850EA41
:100B20004A000ED044F61050A5F2FF3545432F146D
:100B3000B8F1000F1ED07542291E1EDDC9F100025A
:100B40001CE0B8F1010F4FF0000001D0302103E0AC
:100B5000F24305E02154401CB042FBDB304600224A
:100B6000002121540B99C1F80880C1E900200FB081
:100B7000BDE8F08FBD1B6D1CDEE74A4600DA694216
:100B800006A800F0F3FB06AB93E8070003AB83E88D
:100B9000070050460A9900F064FC8DE80700A0F5B4
:100BA00000501F3800900398002D0ADD42F21F010B
:100BB0004A460844002303A90390684600F0CDFE8E
:100BC00009E0A0F500504A461F38002303A903900E
:100BD000684600F0D7FE8DE807000004000C03D043
:100BE0004FF0FF30410800E01046B8F1000F03D08D
:100BF0000022009215461EE0751E05D4FFF722FF65
:100C0000303262556D1EF9D5B3460122084302D039
:100C100000227F1C04E02078302801D100227F1EB2
:100C2000002A099784D01DE0112D07DAFFF70AFF8B
:100C3000303262556D1C50EA0102F5D1084302D0F2
:100C40000098C8B10EE00021681E05E0235C625CDC
:100C500063542254401E491C8142F7DBAB46A81B5B
:100C6000401E0990002004F80B000B98099AC0F868
:100C70000880C0E9002B7AE711264FF0000857E7FB
:100C80002DE9F04F88460446D21D22F0070191B0AD
:100C9000D1E90001CDE90A0105F0D0FE02460B982A
:100CA000C00F01D02D2007E02068810701D52B203F
:100CB00002E0202101EAC000032A099001D0072A9E
:100CC00005DB03464146204600F010FB0BE120788F
:100CD000800601D5E06900E00620B8F1650F814685
:100CE00006D0B8F1660F18D0B8F1670F70D131E0B7
:100CF0000020B9F1110F009001DB112301E009F18F
:100D000001030AAA01A90CA8FFF7E2FEDDE90C70B5
:100D1000002609F10105834647E001204B4600907B
:100D20004FF000470AAA01A90CA8FFF7D1FEDDE9A0
:100D30000DB00C995D46002610B909F101000D189F
:100D4000B9EB050003D4C0F1FF3609F10105A5EBAD
:100D500009002BE0B9F1010F01DA4FF00109002081
:100D6000B9F1110F0090484601DD112300E0034660
:100D70000AAA01A90CA8FFF7ABFEDDE90C704D46ED
:100D800000268346207800070AD4AB4500DA5D468A
:100D900001A8012D04DD411911F8011C302907D0EB
:100DA0004F4502DA17F1040F04DA012082460FE002
:100DB0006D1EEEE7002F02DCED1B3E4403E0781CC5
:100DC000A84200DD7D1CB81B00F1010A4FF000476E
:100DD0002078000703D4AA4501DB4FF0FF3A002139
:100DE000B7F1004F0DF143088DF8431024D00220D5
:100DF0002B23002F01DA7F422D230A21021EA0F1AE
:100E0000010000DC5FB197FBF1FC97FBF1F201FB05
:100E10001C7C17460CF1300C08F801CDEEE7A8F168
:100E2000010003702188090501D5452100E06521F5
:100E3000A0F1010800F8011C09980FA9A1EB08070F
:100E4000FF1D00B10120411901EBEA70A16938448E
:100E5000081A401EA0612078C00602D42046FFF781
:100E600057FA099828B1D4E901219047206A401C1B
:100E700020622078C00622D52046FFF749FA1EE0FE
:100E8000002E04DBB34502DD01A8805D00E03020C8
:100E9000D4E901219047206A401C2062761CAAF107
:100EA00001005FEA000A0AD100F01CFAC06801687C
:100EB000405CD4E901219047206A401C2062281E32
:100EC000A5F10105DCDC07E0D4E9012118F8010BEC
:100ED0009047206A401C2062381EA7F10107F3DC0E
:100EE0002046FFF72BFA032011B041E62DE9F04F21
:100EF00004460D46D21D22F0070089B0D0E90097C4
:100F00004846394605F09AFD0246F80F01D02D23D8
:100F100007E02068810701D52B2302E0202101EAA8
:100F2000C0038DF820300BB1012000E00020032A1F
:100F3000824601D0072A04DB2946204600F0D6F974
:100F40003FE12078800601D40D2500E0E569C7F374
:100F50000A560D2D49DA00214FEA175B08464FF07B
:100F60000000002F00F4400007DA00EB80004FF48F
:100F7000400100EBD07001EA60008115012901DD1C
:100F80004FF0FF3100224FEA850CBCF1180F06D359
:100F90001346ACF118004FF08052C24003E04FF40A
:100FA000801323FA0CF30CF10C0CBCF1200F04D3CA
:100FB000ACF1200C09FA0CF001E007FA0CF0002962
:100FC0004FF0004801DD18B90FE00ED140450CD3B9
:100FD00019EB02095F4121B9404502D19F4329EA3B
:100FE0000209BBEB175F00D0761C2088000502D5F4
:100FF0007B48784402E07A487844193808AA3023BC
:1010000002F80A30037C0AF10101002E0AF1020AFB
:1010100053546A4602DC4FF0300101E04FF03101D9
:101020004FF001088DF8001002D0A6F2FF3603E061
:1010300059EA470100D06B4E002D02DC21780907E8
:1010400004D54FF002082E218DF80110C44600216E
:101050000BE0C7F303433F01C35C491C6D1E02F85C
:101060000830052908F1010801DA002DF1DC002122
:101070000CE000EB1973491C1B786D1E082902F85F
:1010800008304FEA091908F1010801DA002DF0DCF7
:1010900021688B0602D516E0A8F10108E04505DDC0
:1010A00002EB080313F8013C302BF5D0B8F1000F28
:1010B00009DD02EB080313F8013C2E2B03D10907CD
:1010C00001D4A8F10108002D05DD3E2102F8081029
:1010D0006D1E08F10108407C002E02F8080008F19E
:1010E000010804DA2D20764202F8080002E02B20E5
:1010F00002F808000A214FF47A70864208F10108CC
:101100000BDB96FBF0F3303302F8083096FBF0F37C
:1011100008F1010800FB136601E0642E0CDB64207B
:1011200096FBF0F3303302F8083096FBF0F308F149
:10113000010800FB136601E00A2E06DB96FBF1F0C6
:10114000303002F8080008F1010896FBF1F001FBCD
:101150001060303002F80800A16908F1010808EBBE
:10116000050202EB0A00081AA0612078C00602D42A
:101170002046FFF7CDF8216A08AE01EB0A00206295
:1011800004E0D4E9012116F8010B9047BAF1010AF5
:10119000F7D22078C00602D52046FFF7B9F86E4690
:1011A00009E016F8010B3E280FD0D4E90121904741
:1011B000206A401C2062B8F10108F2D22046FFF7F5
:1011C000BDF809B00320BDE8F08F206A28442062F2
:1011D00003E0D4E90121302090476D1EEBD3F8E7FE
:1011E0003DC0000002FCFFFF10B5436913B1AFF32F
:1011F000008001E0FFF747FA012010BD127800F1EE
:1012000024010A7000224A700122EDE711684FF0B4
:10121000FF32E9E710B5436913B1AFF3008001E095
:10122000FFF7EEFA012010BD128800F1240182843C
:101230000022C2840122EDE711684FF0FF32E9E796
:1012400070B516460C46054600F044F8036893F85E
:101250000101012806D0FF2C0FD8185D68B10120CC
:101260002C7070BDD3F807013246214603F20713F4
:1012700003442846BDE8704018474FF0FF3070BD6A
:1012800000487047841D00207546FFF7F9FFAE4601
:1012900005006946534620F00700854618B020B582
:1012A000FEF7F6FFBDE820404FF000064FF00007C4
:1012B0004FF000084FF0000B21F00701AC46ACE8FE
:1012C000C009ACE8C009ACE8C009ACE8C0098D466B
:1012D0007047000010B500F005F8001D10BD00BFFC
:1012E0007D60000000487047A41D00202DE9F041FA
:1012F0001F46044603260168072A01F4006004DB48
:1013000008B116A505E016A503E008B115A500E093
:1013100015A521F010002060A069C01EA0610FB1CA
:10132000401EA0612046FEF7F3FF4FB1D4E9012132
:1013300038469047206A401C2062C01C206206E0AC
:10134000206AFAE7D4E9012115F8010B9047761ECF
:10135000F8D22046FEF7F2FFBDE8F0814E414E0084
:101360006E616E00494E4600696E66002DE9F047D9
:10137000814616468AB0354878440DC88DE80D0080
:1013800032487844801C03AC0DC884E80D0041F657
:101390009B300844372190FBF1F290FBF1F5A5F169
:1013A000800501FB12041B3C02D56442012000E0D1
:1013B0000020DFF898A080460027FA44AAF1BE0A70
:1013C0000EE0E0070AD03246684607EB47010123EA
:1013D0000AEB810100F0D6FA8DE8070064107F1C4B
:1013E000002CEED1194F7F44AE3F19E0E80715D02D
:1013F00007EB04100DF1180A90E80E008AE80E00C1
:10140000C068F04201D1981908903246012306A91C
:1014100003A800F0B7FA03AB83E807006D10641C63
:10142000002DE3D14FF0010332466946B8F1000FB9
:1014300003A802D000F091FA01E000F0A3FAC9E994
:101440000001C9F808200AB0BDE8F08748BD0000D7
:1014500010B50446AFF300802046BDE81040FEF70B
:1014600002BF5FEA400C08BF91F0000F4FEA8C23E7
:101470004FEAC12243EA51514FEA1C5018BF00F510
:10148000F0404FEA300018BF41F000415FEA6C5C69
:1014900000F02980BCF1FF3F08BF40F0804070475A
:1014A000130C06BF12044FF0100C4FF0000C130E7B
:1014B00004BF12020CF1080C130F04BF12010CF14F
:1014C000040C930F04BF92000CF1020CD30F04BF65
:1014D00052000CF1010C11464FF00002A0F11F0068
:1014E000A0EB0C00704711F0004F08BF704731F0BF
:1014F00000413FF4D5AF0B0C06BF09044FF0100CB0
:101500004FF0000C0B0E04BF09020CF1080C0B0F7E
:1015100004BF09010CF1040C8B0F04BF89000CF10E
:10152000020CCB0F04BF49000CF1010CCCF12003DD
:10153000A0EB0C0022FA03F302FA0CF241EA0301D9
:1015400000F10100704720F07F4C80EA030023F097
:101550007F47ACEB070303F57C5300F0004003F139
:10156000FF032DE980494FEA154B09B44FEA1443B4
:1015700025EA0B4E24EA03480FF2042606EB132754
:1015800049083E785FEA320203FB0667C7F50007A9
:1015900007FB06F64FEA54374FEAD64606F1020635
:1015A00007FB066CCCF1005C4FEA1C472CEA074CA9
:1015B00007FB06F40CFB06F504EB15464FEA9616FE
:1015C00034BF00204FF000404FEAD13706FB07FC44
:1015D0004FEA1C4C0CFB0BF7D21B03FB0CF761EB27
:1015E00007010CFB0EF7B0EB074072EB17420CFB48
:1015F00008F734BFA2EB0742B2EB074261EB174199
:101600004FEA0C444FEA910706FB07FC4FEA1C4CDB
:101610000CFB0BF7B0EBC74072EB573203FB0CF738
:1016200034BFA2EBC742B2EBC74261EB57310CFBB0
:101630000EF7B0EBC70072EB57720CFB08F734BF24
:10164000A2EBC702B2EBC70261EB5771039F4FEAEF
:10165000816141EA921104EBCC044FEAD1374FEAA1
:10166000826206FB07FC42EA90124FEA80604FEA72
:101670001C4C0CFB0BF7D21B03FB0CF761EB0701B7
:101680000CFB0EF7B0EB074072EB17420CFB08F7B0
:1016900034BFA2EB0742B2EB074261EB17414FEABE
:1016A0008C554FEA910704EB9C2406FB07FC4FEA9C
:1016B0001C4C0CFB0BF7B0EBC74072EB573203FB33
:1016C0000CF734BFA2EBC742B2EBC74261EB573114
:1016D0000CFB0EF7B0EBC70072EB57720CFB08F770
:1016E00034BFA2EBC702B2EBC70261EB577115EB37
:1016F0004C254FEA816141EA92114FEA82624FEA3A
:10170000D13742EA901206FB07FC44F100044FEA8D
:1017100080604FEA1C4C0CFB0BF7D21B03FB0CF751
:1017200061EB07010CFB0EF7B0EB074072EB1742C1
:101730000CFB08F734BFA2EB0742B2EB074261EBA8
:10174000174115EB1C154FEA813141EA92414FEAEE
:10175000823242EA90424FEA80304FEA0C7644F1FE
:10176000000448EA03434EEA0B484FF0000EB2EB88
:10177000080C71EB030724BF624639464EEB0E0E90
:101780004FF0000B0018524149414BEB0B0BB2EBF1
:10179000080C71EB03077BF1000B24BF624639464E
:1017A0004EEB0E0E4FF0000B0018524149414BEB2F
:1017B0000B0BB2EB080C71EB03077BF1000B24BFA2
:1017C000624639464EEB0E0E51EA020718BF46F04C
:1017D000010616EB0E7655F1000254F1000103D517
:1017E000BDE88901BDE80088BDE88901BDE8004881
:1017F000B619524141EB0101A3F10103704780800A
:101800007F7E7D7C7B7A797877767675747372715A
:1018100071706F6E6E6D6C6C6B6A6A696868676612
:1018200066656464636362616160605F5F5E5E5DA4
:101830005D5C5C5B5B5A5A59595858575756565518
:1018400055555454535352525251515050504F4F7A
:101850004F4E4E4D4D4D4C4C4C4B4B4B4A4A4A49CA
:10186000494948484847474747464646454545440D
:101870004444444343434342424242414141002B9A
:101880009C4630D477002BD01CB54FEA370703B401
:101890004FF010004FF01001BAF1000F06D0BCF16C
:1018A000000FDCBF40F0080040F008014FF00000DE
:1018B0000FBCBDE810400BF1010BBBF1010F08BFDD
:1018C0005FEA170722BF12F1010211F101014FF087
:1018D000004143F1000300F0004043EA000070477C
:1018E000F9D35708D0E746EA064613F1400F4FEA0E
:1018F00016461FDD13F1200FDFBF16430A460021F5
:1019000020335B42BED0C3F1200746EA064602FA06
:1019100007F74FEA164646EA0706C3F1200722FA00
:1019200003F201FA07F721FA03F14FF0000342EA4C
:101930000702A7E746EA020646EA06464FEA1646C7
:1019400046EA0106BCBF46EA0646360C4FF00003E5
:101950004FF000024FF0000194E72DE9804C9A46C9
:10196000934670B491E8380007C831EA400C48BF8C
:1019700034EA430C03D5FFF7E6FDFFF780FFF0BC28
:10198000BDE8008C2DE9804C9A46934670B491E8EE
:10199000380007C810F0804F08BF13F0804F03D104
:1019A00000F005F8FFF76BFFF0BCBDE8008C20F0FD
:1019B0007F4780EA030023F07F4C07EB0C03A3F57D
:1019C0007C5300F00040A3F1FE0392F0000F00F002
:1019D000B38095F0000F00F077802DE901494FEAC0
:1019E00011404FEA144621EA004800FB06FC24EAB5
:1019F000064708FB06F607FB08F800FB07F718EB9D
:101A000006484CEB164C4FEA124B18EB07484FEACE
:101A100015464CEB174022EA0B4E0BFB06FC25EA61
:101A200006470EFB06F607FB0EFE0BFB07F71EEB49
:101A3000064E4CEB164C4FF000061EEB074E4CEBDF
:101A4000174B18EB0B0840F1000018EB0E0B58EB8E
:101A5000000840F100008F1A4FF000013CBFC9435D
:101A6000661B14BFB5EB040C00213CBFC943F61B39
:101A70004FEA17444EEA8E0E27EA04454FEA1C4708
:101A800004FB07622CEA074C05FB07F70CFB05F685
:101A900004FB0CFC16EB074642EB174216EB0C4618
:101AA00042EB1C421BEB060658EB0202414146EAA0
:101AB0009E0601D5BDE80189B619524141EB0101ED
:101AC000A3F10103BDE801894FEA14454FEA11472C
:101AD00024EA054621EA074C05FB07F406FB07F755
:101AE0000CFB06F105FB0CFC11EB074144EB174422
:101AF0004FEA124711EB0C4144EB1C4422EA074C1D
:101B000005FB07F206FB07F70CFB06F605FB0CFCD2
:101B100016EB074642EB174216EB0C4642EB1C4510
:101B20006A1854F1000148BF7047B619524141EBA1
:101B30000101A3F10103704795F0000F37D04FEA80
:101B400011424FEA144721EA024624EA074C02FBFD
:101B500007F106FB07F70CFB06F402FB0CFC14EB89
:101B6000074441EB17414FEA154714EB0C4441EB96
:101B70001C4125EA074C02FB07F506FB07F70CFBA7
:101B800006F602FB0CFC16EB074645EB174516EB79
:101B90000C4645EB1C42121951F1000148BF704739
:101BA000B619524141EB0101A3F1010370474FEA1D
:101BB00014454FEA114724EA054621EA074C05FB84
:101BC00007F106FB07F70CFB06F24FF0000605FBDA
:101BD0000CFC12EB074241EB174112EB0C4251EBAC
:101BE0001C4148BF7047921841EB0101A3F101036A
:101BF00070470029816802D041F0010101E021F025
:101C000001018160704710B504F0F2FF04F094FF09
:101C1000BDE8104000F00AB80029816802D041F404
:101C2000807101E021F480718160704710B501215D
:101C30008CB0084603F01EFD0520039000201249D9
:101C4000019102904FF4806107910A9080210591E3
:101C5000202108910D4900918915049008010C4C30
:101C6000069109906946204600F09EFB022000F094
:101C70006BFB01220221204600F08EFB0121204651
:101C800000F06EFB0CB010BD201700204C2401406A
:101C9000080002400029816802D041F4801101E06F
:101CA00021F480118160704701460020896849074E
:101CB00000D501207047000010B542680E4B0C792A
:101CC0001A400B6842EA04221343436083680B4ABC
:101CD0001340D1E9024222434C7943EA44031A43B8
:101CE0008260C26A097C22F47002491EC9B242EACB
:101CF0000151C16210BD0000FFFEF0FFFDF7F1FFD2
:101D000070B5072409290AD9C568A1F10A0606EBAE
:101D10004606B440A543B3401D43C56007E00569CE
:101D200001EB4106B440A543B3401D4305611F23A9
:101D3000072A09D2446B521E02EB820293409C4355
:101D400091400C43446370BD0D2A09D2046BD21F2D
:101D500002EB820293409C4391400C43046370BDAC
:101D6000C46A0D3A02EB820293409C4391400C43BB
:101D7000C46270BD816841F008018160704781686C
:101D800041F0040181607047F0B5224D224885B0D2
:101D90000024C5E90240284600F0EAF9686806F028
:101DA0004DFA06B2286806F049FA80251B49CDE9AC
:101DB00001450094CDE9035100B240232022314671
:101DC00002F0C0FC16488168006806F00BFC114E5A
:101DD00020F000406036B0F1814F02DA1148C6E9C8
:101DE00002040C48603000F0C3F9706806F026FA6F
:101DF00007B2306806F022FA0B49CDE9014500949C
:101E0000CDE9035100B240231022394602F09AFC7A
:101E100005B0F0BDF41C00200000A0C226CE0008D2
:101E2000AC1C00200000DC42D6CC0008F0B5224DEE
:101E3000224885B00024C5E90240284600F098F900
:101E4000686806F0FBF906B2286806F0F7F9802505
:101E50001B49CDE901450094CDE9035100B240236F
:101E60002022314602F06EFC16488168006806F0B8
:101E7000B9FB114E20F000403036B0F1814F02DA4C
:101E80001148C6E902040C48303000F071F970685E
:101E900006F0D4F907B2306806F0D0F90B49CDE965
:101EA00001450094CDE9035100B240231A2239467E
:101EB00002F048FC05B0F0BDF41C00200000A0C2F8
:101EC00026CE0008AC1C00200000CC4256CD0008F5
:101ED0000448C069C068002802D0022003F040BF57
:101EE0007047000044000020014802F017BD0000C8
:101EF00080000020FEE70FB470B5A0B00D46064686
:101F0000002427AB80216846269AFEF7E7F9684649
:101F100008E0090603D5A1190CB2801C02E0611982
:101F20000CB2401C01780029F3D120B0204670BCCF
:101F30005DF814FB1CB5044600F150014030CDE9BA
:101F4000000104F1300304F1200204F110012046E5
:101F500000F038F804F1540104F14400CDE9000127
:101F600004F1340304F124024039201D00F02AF862
:101F700004F1580104F14800CDE9000104F13803EF
:101F800004F128024039403800F01CF804F15C01EB
:101F900004F14C00CDE9000104F13C0304F12C02F2
:101FA0004039403800F00EF81CBD1CB500F1140299
:101FB000111FCDE900120B1F0C3A011D00F002F8B1
:101FC0001CBD00002DE9F04F85B0DFF880B1DDE9E0
:101FD0000E890446DBF81C001F461546407A0E4663
:101FE0004FF0000AF0BB3168206806F0F3F87DD0AE
:101FF000DBF81C004068B0F5000F04DAC5F800A05B
:10200000C7F800A09CE0286838602168306806F0B6
:10201000E9FA286005F082FF00910290DBF81C00CD
:10202000406805F07BFF4A4A4A4B05F04DFD009B96
:10203000029A05F049FDCDE90201206805F06EFF26
:10204000DDE9022305F0D2F905F09EF92060029047
:10205000DBF81C004049406805F0FAFF0090316849
:10206000029800E007E006F0BDFA20F00040009979
:1020700006F07CF9C2D3DBF81C00417A012961D15A
:1020800040688346B0F5000F08DAC5F800A0C7F82D
:1020900000A0C9F800A0C8F800A051E02F4906F040
:1020A00099F902902E49584606F094F90190286853
:1020B0003860DFF8B0B02168306806F093FA286025
:1020C000D8F800200146104605F054FFC8F800007B
:1020D0003968286806F086FA05F020FF224A234B6B
:1020E00005F0DCFA05F050F9014600E02AE0C9F8F5
:1020F0000000584606F06EF98346D8F800100198A3
:1021000006F068F980462968029806F063F94146AE
:1021100005F030FF594605F02DFF216805F02AFF34
:1021200001462060306806F05DFA20F00040B0F112
:102130007C5F07DAC5F800A0C7F800A0C9F800A0C6
:102140003068206005B0BDE8F08F0000440000203A
:102150007B14AE47E17A943F0000A0410AD7A33C2C
:102160000AD7A33B6F12033B9A9999999999B93F62
:102170001CB5044600F128012030CDE9000104F12E
:10218000180304F1100204F108012046FFF71AFFBA
:1021900004F12C0104F12400CDE9000104F11C0339
:1021A00004F114022039201DFFF70CFF1CBD0000B4
:1021B0002DE9F0411F48204DC46905F1300694F91E
:1021C000000010B1012814D02FE0B4F92E0006F061
:1021D00071F81949F039096805F0CCFE4FF08641D5
:1021E00006F000FA2860616C6960206CC5E90201A4
:1021F00011E0B4F9360006F05DF8276C394605F0B9
:10220000B9FE2860B4F93800C04306F053F8C5E9B8
:102210000107606CE860B4F9140006F04BF8306018
:10222000B4F9140006F046F87060BDE8F04103F020
:102230009DBD000044000020AC1C00202DE9F047AB
:102240003448354D4FF00008C46905F1300794F962
:10225000000010B1012838D057E0B4F92E0006F084
:1022600029F82D4EF03E316805F084FE4FF086418E
:1022700005F080FE2860B4F9300006F01BF88146B6
:10228000716805F077FE6860B4F92E0006F012F868
:10229000E16905F06FFEA8604846216A05F06AFE14
:1022A000E860E0693061206A7061606AB061A06ACC
:1022B000F0611A483860B4F9140005F0FBFF78604B
:1022C000A4F83A80A4F83C801FE0B4F93200B4F9D5
:1022D000366000EBD070401006EBD671A0EB6100C9
:1022E00005F0E8FFA8600E48E8600E4828607042DC
:1022F00005F0E0FF68604FF07E503860B4F91400DC
:1023000005F0D8FF7860A4F83A80BDE8F04703F004
:102310002DBD000044000020AC1C0020000040C087
:102320000000C040000048C210B5022000F024F8B0
:10233000012806D103490870BDE81040022000F0D2
:1023400003B810BD1C000020C10002D5024908607E
:102350007047024948607047040402400000024090
:102360000029016802D041F0010102E04FF6FE723F
:10237000114001607047000001460020CA0001D5ED
:10238000034A00E0034A12680A4200D00120704765
:102390000004024000000240002A026801D00A4303
:1023A00000E08A430260704730B5036847F6F07278
:1023B00093430C6A8A682243D1E904452C432243A3
:1023C0008C692243CC6922434C6A22438C6A2243A3
:1023D0001A430260CA6842600A6882604968C16044
:1023E00030BD704700B502464FF47A7302E01846DC
:1023F00000F003F8521EFAD200BD00EBC000C1008D
:102400004FF0E020416100218161052101610169F6
:10241000C903FCD504210161704700002DE9F04F8C
:10242000154690F82D2085B09B46012A4CD1284AAC
:1024300001EB41010823D26903EBC1030069126972
:10244000D458042202EBC1020C23825803EBC101D1
:1024500024B15AB9405848B91EA408E0405812B1F6
:1024600020B91DA403E008B11CA400E01CA4686806
:1024700005F0E4FE0FFA80FA286805F0DFFE194D3A
:102480000FFA80F9E86805F0D9FE0FFA80F81649CE
:10249000A86806F0A7F805F0D1FE07B2686805F055
:1024A000CDFE06B2286805F0C9FE0E990BF0FF03B9
:1024B000CAB2CDE90232CDE9009A00B20494434693
:1024C0003A46314601F0A9FE05B0BDE8F08F0000A4
:1024D000440000203E0000007E0000002A000000B2
:1024E0002D000000BC1B00200000C040014802F08D
:1024F00015BA0000C40000200021014803F0D0BF3D
:10250000002C01400121014803F0CABF002C01400A
:1025100070B50B4D284603F0E6FF04B200212846B3
:1025200004F0D8F8074A10680119C81701EB907336
:1025300043F38F0023F00303C91A116070BD00003C
:10254000002C01407400002030B5012187B0C80282
:1025500003F0A8F80121042003F0A4F848208DF826
:102560001B004FF44070ADF8180003208DF81A00DE
:1025700006A91D4800F080F80024ADF812404FF67F
:10258000FF701A4DADF80E40ADF81000ADF80C40DC
:102590008DF8144003A9284604F0C6F8684604F0F4
:1025A00047F8ADF800400F24ADF8084069462846CA
:1025B00003F0A8FF0420ADF80000ADF8084069461C
:1025C000284603F09FFF00231A460321284603F004
:1025D00071FF0121284603F063FF0021284604F023
:1025E00079F807B030BD000000080140002C014020
:1025F00070B5154C04250826E0690169B0F93A0068
:1026000000EB400005EBC0028A5832B106EBC00077
:102610000858002816D103F09BFBE1690869B1F95D
:102620003A1001EB410106EBC1028258002A09D0A1
:1026300005EBC1014058002804D1BDE870400120DD
:1026400003F08EBB70BD00004400002004490A68FE
:1026500022F010020A600A6802430A607047000014
:1026600000200240034A116801F038010143116063
:102670007047000000200240F0B5CA78002502F043
:102680000F03D20601D58A7813430A784FF00F0E54
:1026900012F0FF0F4FF001021CD004680F8802FAFD
:1026A00005F63740B74211D14FEA850C0EFA0CF708
:1026B00024EA070703FA0CF43C43CF78282F02D012
:1026C000482F02D002E0466100E006616D1C082D33
:1026D000E4D304600C88FF2C1ED944685FF0000628
:1026E00006F1080702FA07F50F882F40AF420FD115
:1026F0004FEA860C0EFA0CF7BC4303FA0CF73C4386
:10270000CF78282F00D14561CF78482F00D10561BF
:10271000761C082EE4D34460F0BD02460020926887
:102720000A4200D001207047416170470161704743
:102730000AB10161704741617047000070B51348EC
:10274000C56995F90A0005F0B5FD11494E68314695
:1027500005F010FC0446B5F9300005F0ABFDA96AA0
:1027600005F035FF314605F005FC4FF07E5105F0D0
:1027700039FF05F063FD00B205F09CFD214605F030
:1027800067FC05F05BFD00B270BD00004400002056
:10279000DC1C00200348007808B1002070470120AD
:1027A00070470000440000200648B0F904103129A9
:1027B00002DA491C818070470021818002884280B2
:1027C000018070476C0000200348407808B1002069
:1027D000704701207047000044000020014600209F
:1027E00001E0401C00B200EB400251F83220002A08
:1027F000F7D17047082808D00C2803D0102807D03C
:10280000142808D00C22072007E00822062004E044
:102810001022082001E014220A20002900D11046CD
:102820007047002802D0C16909B102207047016ACF
:1028300009B103207047416A09B104207047816AD9
:1028400009B10520704780690028FBD0012070473E
:10285000FEE7000038B50121102002F023FF01211E
:10286000042002F01FFF0121082002F01BFF0121BC
:10287000082002F017FF4FF40050ADF80000482088
:102880008DF8030003208DF8020069460E48FFF71B
:10289000F3FE4FF48070ADF8000069460B48FFF777
:1028A000EBFE4FF480500A4CADF80000694620461C
:1028B000FFF7E2FE4FF40040ADF800006946204605
:1028C000FFF7DAFE38BD00000010014000080140AB
:1028D000000C014038B50121082002F0E3FE4FF45E
:1028E0001040ADF8000048248DF8034003258DF812
:1028F000025069461148FFF7BFFE0121102002F087
:10290000D1FE4FF40050ADF800008DF803408DF873
:10291000025069460A48FFF7AFFE0121042002F089
:10292000C1FE4FF48070ADF800008DF803408DF8C3
:10293000025069460348FFF79FFE38BD000C014076
:1029400000100140000801400D4930B40A880023FE
:102950000A2A08D2521C92B20A800A2A03D14A8853
:10296000521C4A800B804A88D41E022C05D8052AA6
:1029700000D14B8030BC00F005B830BC00F026B868
:102980001800002070B5044600F020F80E4980229F
:102990008B154815082C12D2DFE804F01104060D3F
:1029A000080A0C0F0A6070BD0B6070BD0A60FBE77F
:1029B0000A6000E00B60086070BD0A60FAE7BDE8DD
:1029C000704000F003B80000140C0140034880215F
:1029D000016081150160411501607047100C0140D4
:1029E0000B490A4A0020C1E90220C1E90020303128
:1029F000084AC1E90220C1E9002030314FF0864287
:102A0000C1E90220C1E9002070470000000048C36E
:102A1000F41C002000000143FEE70000084810B548
:102A2000C06990F90A0005F045FC0649496805F0BF
:102A3000A1FA044C303CE16805F09CFAE06010BD5E
:102A400044000020DC1C0020084810B5C069B0F923
:102A5000360005F02FFC0649496805F08BFA044C56
:102A6000303CA16805F0B3FDA06010BD440000201B
:102A7000DC1C0020084810B5C069B0F9360005F02C
:102A800019FC0649496805F075FA044C303CA16808
:102A900005F070FAA06010BD44000020DC1C00208E
:102AA000084810B5C06990F90A0005F003FC064912
:102AB000496805F05FFA044C303CE16805F087FD99
:102AC000E06010BD44000020DC1C0020F8B503F0DD
:102AD000B9F903F0ADFA03F0BBFA03F067FB214844
:102AE000FFF746FB1F483030FFF75FFA1D483038CC
:102AF000FFF75BFA1B48F038FFF71CFA02F074FA94
:102B00001948FFF717FA184CE06805F097FB07B271
:102B1000A06805F093FB06B2606805F08FFB05B274
:102B2000206805F08BFB114C00B23B46E169324650
:102B3000097A0091294602F0E3FEA07801F0CCFB6F
:102B4000B4F9060000F0F0F906481838FFF72DFA3E
:102B500004489038FFF7EEF902F0F2F8BDE8F840CB
:102B600000F022BDAC1C00205C1B002044000020B3
:102B7000704700001FB50FA10522D1E90001CDE982
:102B8000020102A9302000F00DF90522694610204B
:102B900000F05CF8002069460A5CA52A03D1401CBD
:102BA000C0B20528F8D3052802D0012004B010BD1A
:102BB0000020FBE7A5A5A5A5A5000000F8B501210B
:102BC000082002F06FFD4FF48066ADF8006010251C
:102BD0001C4F8DF8035001248DF802406946384699
:102BE000FFF74AFD0121042002F05CFDADF8005022
:102BF0008DF80350144D8DF8024069462846FFF7C2
:102C00003BFD31463846FFF791FD10212846FFF77E
:102C10008DFD0121082002F045FDADF8004048205F
:102C20008DF803008DF8024069463846FFF724FD11
:102C300031463846FFF778FD10212846FFF776FD2C
:102C4000F8BD0000000C0140000801402DE9F041F2
:102C5000DFF838800F460446154610214046FFF73E
:102C600063FD204603F00CF80646002405E0FF2033
:102C700003F006F83855641CE4B2AC42F7D31021D7
:102C80004046FFF753FD3046BDE8F08100080140A3
:102C900070B5094D044610212846FFF745FD204632
:102CA00002F0EEFFFF2002F0EBFF04461021284661
:102CB000FFF73CFD204670BD0008014070B51E4E78
:102CC0004FF4806529463046FFF72EFD0321084664
:102CD00000F08CF8194C0522611C302000F062F8DD
:102CE0000522611C2A2000F05DF806213D2000F03D
:102CF0007DF801213C2000F079F80121212000F02D
:102D000075F80121222000F071F8A179252000F04A
:102D10006DF81A21242000F069F80721262000F020
:102D200065F80E21202000F061F829463046BDE804
:102D30007040FFF7FBBC0000000C014028000020A1
:102D400070B5174C05464FF4806631462046FFF7B4
:102D5000EBFC0B222946A02000F024F83146204647
:102D6000FFF7E4FC01212046FFF7D7FC0028F9D14A
:102D70000720FFF78DFF04460146272000F036F8B4
:102D800000F09CF8E00605D5FF21E12000F02EF8C8
:102D9000102070BDA00601D5202070BDFF2070BDA1
:102DA000000C01402DE9F041DFF83C800D4604465F
:102DB000164610214046FFF7B7FC204602F060FFA0
:102DC0000746002406E000BF15F8010B02F058FF8B
:102DD000641CE4B2B442F7D310214046FFF7A6FCCE
:102DE0003846BDE8F08100000008014070B50A4D8A
:102DF0000E46044610212846FFF796FC204602F0B6
:102E00003FFF0446304602F03BFF10212846FFF703
:102E10008DFC204670BD00000008014070B50F23F6
:102E2000C47801780122F4B1144C2468457804F484
:102E3000E064C4F5E064240AC4F10406E340847845
:102E4000B5401C402C4301F1E021230181F80034FE
:102E5000007800F01F018A404009800000F1E02066
:102E6000C0F8002170BD01F01F00824048098000B9
:102E700000F1E020C0F8802170BD00000CED00E002
:102E80000249084302490860704700000000FA0543
:102E90000CED00E008B54FF4A060FFF7F1FF0B2048
:102EA0008DF8000000208DF801008DF8020001204F
:102EB0008DF803006846FFF7B1FF08BD10B50B227F
:102EC00008496120FFF7C2FE064907480A78AA2A86
:102ED00002D1897AAC2902D00021417010BD0121B4
:102EE000FBE700002A1700201C0000200B4810B54B
:102EF0000178002911D000210170094803F09AFEE1
:102F0000084804F013F90748FFF71AFF202804D0F7
:102F1000BDE810400420FFF717BD10BD1C000020C5
:102F2000201700203517002010B50446FF2801DDCA
:102F3000FF2402E0002C00DA0024812002F01EF8B9
:102F4000E0B2BDE8104002F019B8000010B5002151
:102F5000074C0A46002004EBC1131A54401C00B26F
:102F60008028FADB491C09B20829F3DB10BD0000F8
:102F70005C170020F0B5002A38DD002B36DD002874
:102F800001DA002500E00546104402B2802A00DD87
:102F9000802295422ADA002901DA002000E0084662
:102FA000194409B2402900DD402188421EDA1BE0A5
:102FB000C31700EB537626F00703C71A0123DFF887
:102FC00030C0BB40F6102C460CEBC61608E0371993
:102FD000641C97F800C024B22CEA030C87F800C0E8
:102FE0009442F4DB401C00B28842E1DBF0BD0000FB
:102FF0005C1700202DE9FF5F0D468046002A7DDD2D
:10300000C2F1010014460FFA80FB0026214630462B
:103010000E9B039A01F006F8474620B1281901B229
:10302000404600F089F9604201B24FF0000A89463B
:1030300050460E9B039A00F0F5FF20B1281B01B209
:10304000384600F079F9314620460E9B039A00F08D
:10305000E9FF28B108EB0400294600B200F06CF942
:10306000514648460E9B039A00F0DCFF28B1A8EBBE
:103070000400294600B200F05FF90F98002811D033
:103080004F460DE0394600200E9B039A00F0CAFF20
:1030900020B1E81901B2404600F04EF97F1C3FB262
:1030A000A742EFDBCDE0761C36B2BBF1000F02DAAF
:1030B0000BEB460004E0641E24B2311B0BEB410015
:1030C000401C0FFA80FB214630460E9B039A00F00D
:1030D000A9FF30B1281901B208EB060000B200F0D8
:1030E0002BF9314620460E9B039A00F09BFF40B11E
:1030F000A81901B208EB040000B200E0A4E000F05F
:103100001BF9604201B2704200B2894682460E9BB2
:10311000039A00F087FF30B1281B01B2A8EB06002C
:1031200000B200F009F9514648460E9B039A00F0A0
:1031300079FF30B1A81B01B2A8EB040000B200F087
:10314000FBF8494630460E9B039A00F06BFF30B106
:10315000281B01B208EB060000B200F0EDF8514662
:1031600020460E9B039A00F05DFF30B1A81B01B210
:1031700008EB040000B200F0DFF8214650460E9B39
:10318000039A00F04FFF30B1281901B2A8EB0600F6
:1031900000B200F0D1F8314648460E9B039A00F089
:1031A00041FF30B1A81901B2A8EB040000B200F051
:1031B000C3F80F98F0B34F461DE0394630460E9BDA
:1031C000039A00F02FFF30B1E81901B208EB0600B6
:1031D00000B200F0B1F8394650460E9B039A00F059
:1031E00021FF30B1E81901B2A8EB060000B200F0EF
:1031F000A3F87F1C3FB2A742DFDB57461FE03946EA
:1032000048460E9B039A00F00DFF30B1E81901B259
:10321000A8EB040000B200F08FF8394620460E9B60
:10322000039A00F0FFFE40B1E81901B208EB040078
:1032300000B200E005E000F07FF87F1C3FB2B7422B
:10324000DDDBA642FFF62FAFBDE8FF9F2DE9F04F73
:103250001E464FF0000904460D461746C846B142C7
:103260000ED1BC4208DD2746144605E0294620461B
:1032700000F062F8641C24B2BC42F7DDBDE8F08FB8
:10328000BC420DD1B54208DD1D460E4605E029467B
:10329000204600F051F86D1C2DB2B542F7DDEDE788
:1032A00003DD274614461D460E46B54205DD68423D
:1032B00005B2704206B24FF00109701B391B8842FB
:1032C00007DD20462C4605463846374606464FF071
:1032D0000108701B4200391B0FFA82FB421A520090
:1032E0000FFA82FAC1EB400019E0604201B203E03C
:1032F000684201B203E02146284601E02946204603
:1033000000F01AF8BC42B9DA641C24B2002E02DACA
:1033100006EB0B0003E06D1C2DB206EB0A0006B2B3
:10332000B9F1000F03D0B8F1000FE1D0DDE7B8F13B
:10333000000FE3D0DFE7000010B5002815DB0029FF
:1033400013DB7F2811DC3F290FDCCA1701EB527217
:10335000D410064B22F0070203EBC41318448A1A58
:103360000378012191400B43037010BD5C170020CE
:103370002DE9FC4F0C460646002A63D0002B61D095
:10338000050005EB0200A0F1010A01EB0307084666
:10339000A7F101070FFA8AFC39B28B46CDF804C0B9
:1033A00000D50025BCF1800F01DB4FF07F0C002819
:1033B00000DA0020402900DB3F21ACEB0502521C63
:1033C00013B20A1A521C12B2002B3BDD002A39DD5F
:1033D000C21700EB52784FEAE802CB1728F0070833
:1033E000A0EB08084FF0FF0E0EFA08F0C0B201EB98
:1033F0005379009029F00700081AC0F107002EFA4F
:1034000000F10B984FEAE903D0B91DE010461C4EBD
:1034100012E0FF24904200D1009C984200D10C4061
:10342000082807D206EBC01717F8058048EA0408F9
:1034300007F80580401C00B29842EADD6D1C2DB2F1
:103440006545E3DDBDE8FC8F354609E021462846A9
:10345000FFF772FF59462846FFF76EFF6D1C2DB22D
:10346000AA45F3DA09E021463046FFF765FF214619
:103470000198FFF761FF641C24B2A742F3DAE1E789
:103480005C1700202DE9FF4F85B01D46DDE912478E
:10349000160067D0002D65D006EBD670B4EB600F38
:1034A00004DC05EBD570B4EB600F07DDAE4201DA4A
:1034B000104600E0184600EBD0704410002C05DCEC
:1034C0000097DDE905012B46324649E06FF0590AC5
:1034D000CDE900A70698B423204401B20598894697
:1034E000204400B280462246FFF784FD0020CDE94B
:1034F00000070598494630440290001B401E00B268
:10350000834653462246FFF775FDB420CDE90007F8
:1035100006985A2328440390001B401E01B28A4695
:1035200040462246FFF766FD5A20CDE90007514686
:10353000584600232246FFF75DFDB7B1644206EB13
:103540004400012702B240462B4600970699FFF738
:103550000FFF05EB440003B2009749463246059839
:10356000FFF706FF09B0BDE8F08F069B5A464046BC
:103570001946FFF76BFE03985A46401E01B20B46F0
:103580004046FFF763FE059A534649461046FFF74B
:103590005DFE029809B053464946BDE8F04F401E13
:1035A00000B20246FFF752BE2DE9F04FFE4DDFF8A4
:1035B000FC83DFF8FC93A878DFF8F8B3FE4C91B0F9
:1035C00020B9FE48C4E9040BC4E90698F64B243B35
:1035D000186A00287ED090F910000021FFF70AF940
:1035E0000746186A012190F91000FFF703F9064613
:1035F000A8784FF0000A012808D0E16841456AD058
:10360000A1684945FBD061685945F8D0E6484FF0BC
:10361000804B24385D46006A5946007A0028E068ED
:1036200060D004F0A7FC04F009FE0FFA80F92946E7
:10363000A06804F09FFC04F001FE0FFA80F84FF040
:103640007E51606804F0CEFF04F0F8FD05B24FF043
:103650007E51206804F0C6FF04F0F0FD0222CDE99F
:10366000002A00B24B4642462946FFF70BFFE068AE
:1036700004F0E4FD0FFA80F9A06804F0DFFD0FFA12
:1036800080F8606804F0DAFD05B2206804F0D6FD29
:1036900000B24B4642462946FFF76CFCDFF8088330
:1036A000A8F12408D8F82090B9F91200400004F0DD
:1036B00001FEA16804F08BFF04F0C0FD05B248468E
:1036C000FFF7AFF800287DD0012831D002287AD04A
:1036D000032801E0DBE3DDE376D0042875D005287C
:1036E00074D13FE204F046FC04F0A8FD0FFA80F923
:1036F0002946A06804F03EFC04F0A0FD0FFA80F813
:103700004FF07E51606804F06DFF04F097FD05B244
:103710004FF07E51206804F065FF04F08FFD00B289
:103720004B4642462946CDF800A0FFF721FE9EE712
:10373000D8F820008069006804F0F0FBCDE90001B2
:1037400002239FA231463846FEF7D5FB04F0B2FDB6
:10375000D8F820900546B9F91200400004F0AAFDFF
:10376000A16804F034FF294604F03CFF4FF081418A
:1037700004F038FF04F062FD05B2D9F818000068C3
:1037800004F0CCFBCDE9000102238DA2314638467E
:10379000FEF7B1FB0690D8F82090D9F81800006821
:1037A00004F0BCFBCDE90401B9F9140004F082FD7A
:1037B0006168039104F0DEFB04F040FD00B201906B
:1037C000069804E0F2E247E0C6E049E153E204F083
:1037D00071FD0090B9F9120004F06CFD0690B9F982
:1037E000000004F067FDD4F80090494604F0C2FBE5
:1037F0004FF07E5104F0F6FE069904F0F3FE0099B6
:1038000004F0F0FE04F01AFD01B20091E06804F04B
:1038100015FD00B20D90A06804F010FD00B20C90F0
:10382000039804F00BFD00B20B90484604F006FD2F
:103830000FFA80FCDDE90401CDE906010DF108096C
:1038400002235FA2F1B2F8B289E80F000DF12C0952
:10385000604699E80E000CE2D8F820005AA23146E2
:10386000C06990F900303846FEF745FB04F022FDB0
:10387000D8F820900546B9F91200400004F01AFD6E
:10388000A16804F0A4FE294604F0ACFE4FF081418B
:1038900004F0A8FE04F0D2FC05B2D9F81C004AA23C
:1038A000314690F900303846FEF725FB0690D8F8EF
:1038B0002090B9F9140004F0FDFC6168039104F054
:1038C00059FB04F0BBFC00B20090069804F0F2FC37
:1038D0000190B9F9120004F0EDFC0490B9F9000070
:1038E00004F0E8FC2168029104F044FB4FF07E51A3
:1038F00004F078FE049904F075FE019904F072FE5C
:1039000004F09CFC01B20191E06804F097FC00B265
:103910000690A06804F092FC00B20C90039804F0AA
:103920008DFC00B20790029804F088FCD9F81C3096
:103930000FFA80FC0DF1080993F9003022A2F1B2D0
:10394000F8B289E80F00DDE90010CDE90001DDE9FA
:10395000063160460C9A02E1D8F820001AA23146DE
:10396000006AB0F900303846FEF7C5FA04F0A2FC50
:10397000D8F820900546B9F91200400004F09AFCEE
:10398000A16804F024FE294604F02CFE4FF081418A
:1039900004F028FE04F052FC05B2D9F820000AA277
:1039A0003146B0F9003011E0680000200000F0411D
:1039B00000007042000020C21C1C002000000842D1
:1039C000252E2A6600000000256400003846FEF718
:1039D00092FA0690D8F82090B9F9140004F06AFC25
:1039E0006168039104F0C6FA04F028FC00B200906C
:1039F000069804F05FFC0190B9F9120004F05AFC3B
:103A00000490B9F9000004F055FC2168029104F01B
:103A1000B1FA4FF07E5104F0E5FD049904F0E2FDA7
:103A2000019904F0DFFD04F009FC01B20191E068A6
:103A300004F004FC00B20C90A06804F0FFFB00B29C
:103A40000B90039804F0FAFB00B20790029804F080
:103A5000F5FB0FFA80FCD9F82000B0F900106EE0F9
:103A6000D8F82000406AAFF2A00203683146384619
:103A7000FEF741FA04F01EFCD8F820900546B9F98B
:103A80001200400004F016FCA16804F0A0FD2946D5
:103A900004F0A8FD4FF0814104F0A4FD04F0CEFB3A
:103AA00005B2D9F82400AFF2E00203683146384687
:103AB000FEF721FA0690D8F82090B9F9140004F026
:103AC000F9FB6168029104F055FA04F0B7FB00B20B
:103AD0000090069804F0EEFB0490B9F9120004F08F
:103AE000E9FB0190B9F9000004F0E4FB21680391BF
:103AF00004F040FA4FF07E5104F074FD019904F097
:103B000071FD049904F06EFD04F098FB01B201917F
:103B1000E06804F093FB00B20C90A06804F08EFB08
:103B200000B20B90029804F089FB00B20790039852
:103B300004F084FB0FFA80FCD9F824000168AFF28E
:103B40007813F0B2FAB2CDE90220CDE90431DDE913
:103B50000010CDE90001DDE90B236046079900F074
:103B60005CFB88E0D8F82000806AD0E90010AFF252
:103B7000A812CDE9001031463846FEF7BCF904F032
:103B800099FBD8F820900546B9F91200400004F0DE
:103B900091FBA16804F01BFD294604F023FD4FF0C2
:103BA000814104F01FFD04F049FB05B2D9F828005B
:103BB000D0E90010AFF2F012CDE9001031463846DE
:103BC000FEF799F90690D8F82090B9F9140004F09E
:103BD00071FB6168009104F0CDF904F02FFB00B295
:103BE0000E90069804F066FB0290B9F9120004F0FA
:103BF00061FB0390B9F9000004F05CFB21680191BE
:103C000004F0B8F94FF07E5104F0ECFC039904F095
:103C1000E9FC029904F0E6FC04F010FB00B20F90FE
:103C2000E06804F00BFB00B20590A06804F006FB0E
:103C300000B20D90009804F001FB00B20C900198C6
:103C400004F0FCFAD9F828100FFA80FCD1E9000141
:103C5000AFF28C23CDE90601FAB20E98CDE901024C
:103C6000F1B2CDE903130F980090DDE90C12604624
:103C7000059B00F0D2FAD8F82090B9F93A000690E6
:103C8000400004F017FBA16804F0A1FC04F0D6FA90
:103C900000B20390B9F9380004F00CFB0090B9F9B8
:103CA0003C90484604F006FB0290E168606804F02E
:103CB00061F9029904F096FC009904F093FC04F079
:103CC000BDFA00B20290069804F0F4FA216804F0FC
:103CD00051F904F0B3FA0222CDE9002ADDE902121B
:103CE00000B24B46FFF7CEFBD8F82000B0F93A00FF
:103CF000400004F0DFFAA16804F069FC4FF0814A4B
:103D0000514604F06FFCDFF8AC91D9F8001004F0D4
:103D10002DFB0DD8D8F82000B0F93A00400004F08F
:103D2000C9FAA16804F053FC514604F05BFC01E0C1
:103D3000D9F8000004F082FA00B20190D8F820907F
:103D4000B9F9380004F0B6FA0590B9F93C0082469A
:103D500004F0B0FA0490E168606804F00BF904998B
:103D600004F040FC059904F03DFC4FF0804104F064
:103D700001F904F063FA0FFA80FBB9F93A0004F094
:103D800099FA216804F0F6F84FF0804104F0F2F857
:103D900004F054FA0FFA80FC01200090AAF104000C
:103DA00003B259466046019AFFF7E2FAD8F82010AC
:103DB000CA68002A6BD0C24631463846FEF79BF8E7
:103DC0008046A8421DDD2169206804F003FA18D15D
:103DD0006169606804F0FEF913D1A169A06804F07C
:103DE000F9F90ED1E169E06804F0F4F909D1DAF8E3
:103DF00020904FF07C51D9F8400004F0F3FBC9F853
:103E00004000C8F1000004F055FADAF82010D0465E
:103E1000096C04F0ABFB05D2681C04F04BFAD8F82F
:103E200020100864D8F82090B9F9140004F042FA80
:103E3000616804F09FF804F001FA0FFA80F8B9F90C
:103E4000120004F037FA216804F094F80490D9F8CD
:103E5000401004F08FF804F0F1F90FFA80FBE068ED
:103E600004F0ECF90FFA80FA049804F0E7F904B2D0
:103E7000D9F80C00F1B2FAB2CDE90221CDE900B8CF
:103E8000049053462A464146204600F0C6F911B038
:103E9000BDE8F08F0749C1F800A0C1F814A0C1F82F
:103EA00008A0C1F810A0C1F80CA0C1F804A0C3F884
:103EB00020A0ECE7941C002038B500204FF47A7263
:103EC0000021491C9142FCD3401C9042F8D30121AF
:103ED000082001F0E7FB14208DF8030003208DF883
:103EE00002004FF400500B4CADF80000694620462C
:103EF000FEF7C2FB4FF48040ADF800006946204653
:103F0000FEF7BAFB012000F00BFF012000F010FFCC
:103F100038BD0000000C014070B500240646802525
:103F200025FA04F0304000D0012000F001FF01200C
:103F300000F0F6FE002000F0F3FE641CE4B2082C52
:103F4000EED3012000F0ECFEBDE87040002000F050
:103F5000E7BE10B5012000F0EBFE012000F0E0FE0E
:103F6000002000F0E5FEBDE81040002000F0D8BEC3
:103F700010B5002000F0DCFE012000F0D1FEBDE80D
:103F80001040012000F0D4BE10B5FFF795FFAE2021
:103F900000F0F4FFD52000F0F1FFF02000F0EEFF7C
:103FA000A82000F0EBFF3F2000F0E8FFD32000F056
:103FB000E5FF002000F0E2FF402000F0DFFFA1203D
:103FC00000F0DCFFC82000F0D9FFDA2000F0D6FFB7
:103FD000122000F0D3FF812000F0D0FFDF2000F09E
:103FE000CDFFD92000F0CAFFF12000F0C7FFDB2091
:103FF00000F0C4FF302000F0C1FFA42000F0BEFF9D
:10400000A62000F0BBFF8D2000F0B8FF142000F0C8
:10401000B5FFAF2000F0B2FFFEF798FFBDE81040FB
:1040200000F06ABE2DE9F0411C461546884603F0B3
:10403000F8FC06460F46404603F0F3FC32463B468A
:1040400002F038FF0C4A0D4B03F028FB00220C4B0A
:1040500003F03AFD03F0B6FC00B2A54204DAA84230
:1040600007DBA04202DD04E0A842FADB0120BDE844
:10407000F0810020FBE700001F85EB51B81E0940CE
:10408000008066402DE9F05F544D4FF4005105F17A
:104090000409A87889F80200E87889F803002878EC
:1040A00089F80000687889F801004C464C48FEF712
:1040B00034FB4C4E28704FF480513046FEF72DFBF8
:1040C0006870B1154848FEF728FBA8704FF400410E
:1040D0003046FEF722FBE8700746A078DFF80CA117
:1040E00000264FF0010B163C08B9A87810B1668184
:1040F000A68118E06089401C00B26081804604F00F
:10410000D9F8504510DBA089401C00B2A081B8F15D
:10411000820F01DB012100E00521814203DCA68141
:1041200084F804B000E0267199F8030000B917B1D3
:10413000E681268218E0E089401C00B2E0818046DA
:1041400004F0B8F8504510DB208A401C00B22082F1
:10415000B8F1820F01DB012100E00521814203DC7F
:10416000268284F805B000E06671A878B84201D1D3
:1041700026716671E0690069FEF730FB8046E069F0
:10418000B0F93A70FEF7C4F9AA7899F802303844C9
:1041900001B29A4201D0012A01D022790AB1491E06
:1041A00009B2EA7899F80300824201D0012A01D0CD
:1041B000607908B1491C09B2CA1B304662F31F403E
:1041C000A8F10102914200DB11B2002900DC0021BC
:1041D000C91B61F30F00BDE8F09F000056000020EE
:1041E00000100140000C0140000801400100F041B6
:1041F0000FB470B5A0B014460D46064628AA68460E
:104200002799FCF759F823466A462946304600F0BC
:104210006CFB20B070BC5DF814FB2DE9F04FA5B02D
:1042200083462EA8914690E8F0008A46984633AA25
:1042300005A83299FCF740F80DF1080C05A88CE8A8
:10424000C10043464A4651465846CDE9004500F074
:1042500011FB25B0BDE8F08FF0B5002A38DD002B4A
:1042600036DD7F2834DC3F2932DC8418802C02DDE7
:10427000C0F1800212B2CC18402C02DDC1F1400323
:104280001BB2841824D4CB1822D4002800DA0020D2
:1042900000291BDA002119E0024613E0CD1701EBDB
:1042A0005577FE100B4D27F0070705EBC615154493
:1042B000A1EB070C2E78012707FA0CF77E40521C61
:1042C0002E7012B29442E9DC491C09B28B42E3DC45
:1042D000F0BD00005C170020014908707047000025
:1042E0004300002010B50C4640F0B00000F046FE40
:1042F000102040EA141000F041FE04F00F00BDE869
:10430000104000F03BBE000008B5082B10D0062B73
:1043100017D0072B21D00A2B1ED1154BC2EB02124E
:1043200003EB4202A2F57072142300920A2211E0FC
:10433000104B03EB0212A2F5007210230092082228
:1043400008E00D4B02EB420203EB4202C03A00923E
:104350000823062200F050F908BD084BC2EBC20248
:1043600003EB4202A2F5E0720C2300920722F1E770
:104370004E88000870930008929E0008609900081B
:10438000F0B585B0DDE90C54DDE90A67082C11D0E1
:10439000062C19D0072C27D00A2C23D1C5EB0514E5
:1043A000174D05EB4404A4F570748DE81F00142329
:1043B0000A2213E0134C04EB0514A4F500748DE8F5
:1043C0001F001023082209E005EB45040E4D05EB04
:1043D0004404C03C8DE81F000823062239463046BD
:1043E00000F0B0F905B0F0BDC5EBC504074D05EB15
:1043F0004404A4F5E0748DE81F000C230722EDE7C8
:104400004E88000870930008929E0008609900088A
:104410002DE9FF4F87B00025DDE9169A9B462C4613
:10442000059581E005A948556D1CEDB2022D79D3A3
:104430000025BAF1080F09D0BAF10C0F0AD0BAF171
:10444000100F0BD0BAF1140F0CD06BE0DFF8948191
:10445000002612E0DFF8908100263AE0DFF88C8138
:10446000002670E0DFF88881002698E0384605A92C
:10447000FCF7A8F868B1761CF6B206EB460000EB34
:10448000C60101EB080007465AA1FCF79BF800287B
:10449000ECD106EB460000EBC60101EB0803DDE9B9
:1044A0000812DB1C01A8049380E806080798009016
:1044B000601C4108149800EBC1000838082300B2C2
:1044C0001A462CE0384605A9FCF77CF868B1761C42
:1044D000F6B206EBC60000EB400101EB0800074610
:1044E00044A1FCF76FF80028ECD106EBC60000EB06
:1044F0004001DDE9082301EB0800C01CCDE903B051
:10450000CDE9012307980090601C400800EB4001B2
:10451000149800EB81000C380C2300B21A46159950
:1045200000F010F9641CE4B219F8040000287FF4CC
:1045300079AF0BB0BDE8F08F384605A9FCF742F81B
:1045400068B1761CF6B2C6EBC60000EB800101EB49
:104550000800074627A1FCF735F80028ECD1C6EB88
:10456000C60000EB8001DDE9082301EB0800C01C58
:10457000CDE903B0CDE9012307980090601C410804
:10458000149800EB01101038102300B21A46C6E749
:10459000384605A9FCF716F858B1761CF6B2C6EBFA
:1045A000861101EB0800074612A1FCF70BF8002862
:1045B000EED1C6EB8611DDE9082301EB0800C01C33
:1045C000CDE903B0CDE9012307980090601C4008B5
:1045D00000EB8001149800EB81001438142300B222
:1045E0001A469CE7EEC400082CBA000898AD0008F3
:1045F000CCA00008000000002DE9FC4F1F46DDF8AC
:104600002CA014000D4606467BD0002F79D07F2EBB
:1046100077DC3F2D75DC002E00DA0020C0B2002DC3
:1046200000DA002101F0FF0C31194A1E7F2A01DD5A
:104630007F2100E0491ECAB2E9194B1E3F2B01DD64
:104640003F2100E0491EC9B2A1EB0C03121A6146DA
:10465000521C5B1CFEF78EFC7F1EF917002007EB37
:1046600051720121DFF8D89001EBE20743E000210D
:104670003DE0721812B205EBC0031BB2802A34D29F
:10468000002B32DB3F2B30DC4FEAE37C03EB5C7E1C
:104690004FEAEE0809EBC81C0CEB020B00FB04F21E
:1046A0009BF800C00AEB0108CDE9008212F808204F
:1046B0002EF00708A3EB080E02FA0EF24CEA020CE9
:1046C00008335A468BF800C03F2B0EDC02F18008FD
:1046D000DDE900C29BF8803012F80C20CEF1080C06
:1046E00022FA0CF2134388F80030491CC9B2A142E7
:1046F000BFD3401CC0B28742B9DC002D1EDA0020B7
:104700001AE01BE031180AB2802A13D26942CF178F
:1047100001EB5771CF100AEB000307FB043321F0C4
:1047200007011B782944494219F80270CB403B43EA
:1047300009F80230401CC0B2A042E3D3BDE8FC8FB0
:104740005C1700202DE9FF4F8946DDE90D16DDE9F4
:104750000F4C002A7ED0002B7CD0002C7AD0BCF1EC
:10476000000F77D07F2875DC7F297FDCB9F13F0F00
:104770007CDC3F2E7ADC884201DA0D4600E00546FB
:104780000C44AE468718651E791E8D4201DA611E03
:1047900000E0791E0DB24946B14501DA374600E026
:1047A0000F4606EB0C0409EB030C661EACF101018D
:1047B0008E4201DA314601E0ACF1010109B27F2DF0
:1047C00000DD7F2500953F2900DD3F218B46AE456A
:1047D0004CDC5F454ADC00215B1EDC1703EB5473A5
:1047E000039340E0002439E00319DEB2764533DB61
:1047F000009B9E4230DC002309EBC10A0AEB030553
:10480000EDB2BD4222DB5D4520DC4FEAD50C05F060
:1048100007050295DDF8448001FB02F5A04415F878
:10482000088001259D4015EA080F0FD0104D4FF06C
:10483000010805EBCC15019515F806C0029D08FA94
:1048400005F8019D4CEA080C05F806C05B1CDBB2BC
:10485000082B00E00AE0D1D3641CE4B29442C3DB2D
:10486000491C039BC9B2B1EBE30FBBDDBDE8FF8F71
:104870005C1700202DE9FF4F85B09A46DDE914470B
:10488000DDE9125893460DF11009169E27E0010646
:1048900018D500204946225C0A54401CC0B20228A8
:1048A000F9D3CDE90217CDE9005800208DF81200A8
:1048B000DDE9050153465A46FFF7AAFDE81905B29E
:1048C000A41C0CE0CDE90206CDE90058DDE90501A4
:1048D00053465A46FFF754FDA81905B2641C2078C8
:1048E0000028D4D109B0BDE8F08F2DE9F0411E4673
:1048F000154688460746002408E004FB067000B20F
:1049000033464146FFF700FD641CE4B22A5D002AED
:10491000F3D1BDE8F081FDF7DBBA000070B5174EAA
:1049200004460020316A11B9154908602064134912
:10493000012224318A700880B4F9000003F0BAFC27
:104940000F4D783DA861B4F9020003F0B3FCE861B3
:10495000B4F90000C0F1800000EBD070401003F00B
:10496000A9FC2861B4F90200C0F1400000EBD0704E
:10497000401003F09FFC6861346270BD4400002069
:10498000941C00202DE9F04F85B01C46DDF83890CE
:1049900017460D46060002D5104407B20026002D2A
:1049A00002DA581804B20025F019802802DDC6F199
:1049B000800007B22819402802DDC5F1400004B28A
:1049C000002F43DD002C41DDA9F1010005283DD277
:1049D000142220496846FBF7C3FDF01902B22819DA
:1049E00003B22C4630E0E01704EB50704FEAE00BC6
:1049F00020F00700201A0121814001F0FF0A304613
:104A00001EE0811B01EBD17727F00107CF1B611B53
:104A100001EBD17C2CF0010CA1EB0C01E84608EB7A
:104A2000890C0CEB4101394411F8041C31B10A49DD
:104A300001EBCB110F5C27EA0A070F54401C00B2B0
:104A40009042DEDB641C24B29C42CCDB05B0BDE8A6
:104A5000F08F000028CF00085C17002038B50E4802
:104A6000C0694068B0F5000F03DABDE83840FEF7D2
:104A70006DBA012460B200210090402380220846D4
:104A8000FFF780FF00F038F92820FDF7ABFC641C2D
:104A9000E4B2052CEED938BD440000202DE9F843DE
:104AA000804610481D461646C0690F464068B0F55E
:104AB000000F03DABDE8F843FEF748BA012460B2FC
:104AC00000902B46324639464046FFF75BFF00F028
:104AD00013F92820FDF786FC641CE4B2052CEED9FE
:104AE000BDE8F8834400002010B50446FFF74CFAF7
:104AF00001F068FEFDF7EEFEFDF726FD0248C461F9
:104B0000BDE81040FDF79ABB440000202DE9F047B6
:104B1000FDF74AFE5D4CD4F820A0FDF73BFE04F102
:104B2000240800287DD0FDF74FFE002879D0FFF73C
:104B3000A9FA98F802104FF00009012908D10214CF
:104B400001D0A8F80090218969F30F001144218158
:104B500006B2002E22DA002577421DE0E0690178D6
:104B600081B9818F19B9408F40B1FDF757FFE169D5
:104B7000B1F93C00002801DD401E8887E069418FC3
:104B8000491E4187E0690178012904D1418F491EFE
:104B90004187FDF76FFF6D1CAF42DFDC002E2FDD7C
:104BA00000252BE0E0690078F0B9FDF7C7FDE16969
:104BB000401EB1F93C20904209D10869FDF70EFE74
:104BC000E169B1F93A10884201D0FDF769FFFDF7BC
:104BD000B5FDE169401EB1F93C20904201DD521C57
:104BE0008A87488F401C4887E0690178012904D1F1
:104BF000418F491C4187FDF727FF6D1CAE42D1DC78
:104C0000224D12352F1D68787978884212D00128FC
:104C100010D198F802004646012803D0FDF758F954
:104C200008E022E01A49DAF8040003F0D3FB03F0AD
:104C300005FB308028783978884216D0012814D1B5
:104C400098F8021001291ED0FDF7D2FCE069026934
:104C5000B0F93A0000EB40010C2000EBC100105805
:104C600018B1017869B10021017098F8020001289B
:104C700005D100BFB8F80010491CA8F80010BDE825
:104C8000F0870121F0E7A8F80090F3E74400002046
:104C90000000484210B500F0D9FEFEF757F9FDF7C5
:104CA00015FF00F0B9FE00F005F8BDE8104000F077
:104CB00023B8000038B50E4C2088401C2080A4F199
:104CC0002800C078002811D0B4F9023009A20621CA
:104CD0000820FDF710F9B4F90210C0F1800000912E
:104CE00000B204A306220021FFF782FA38BD0000BB
:104CF0006C0000202564000070B5084D00240021E0
:104D00002046FFF7EFFA05EBC410802100F048F9C8
:104D1000641CE4B2082CF2D370BD00005C170020C4
:104D200002464FF400510148FDF702BD000C01405E
:104D300002464FF480410148FDF7FABC000C0140E7
:104D40002DE9F0418B4C4FF00008256A85B18A4966
:104D5000686803F03FFB03F071FA04F1240100B22C
:104D6000B1F90020904203DC81F80280A1F80080B4
:104D70002846FDF756FD00282BD0012808D0022830
:104D800028D0032859D004287ED0052821D1B9E0A5
:104D9000B4F9080003F08EFA256AE96A03F01AFBF9
:104DA000AD69296803F0E6F82860216A096B03F011
:104DB000DDFA03D8206A016B80690160206A416BCB
:104DC0008069006803F0D2FB03D8206A416B8069D8
:104DD0000160CAE0B4F9080003F06CFA266AF16ACF
:104DE00003F0F8FAF669054696F9000003F062FA56
:104DF000294603F0BFF803F021FA40B23070256A6B
:104E000003F058FA296B03F0B1FA05D8256A286B2C
:104E100003F014FAE9690870256AE86990F900005E
:104E200003F048FA696B03F0A1FB05D8256A686BAB
:104E300003F004FAE969087097E0B4F9080003F098
:104E400039FA266AF16A03F0C5FA366A0546B6F9F8
:104E5000000003F02FFA294603F08CF803F0EEF976
:104E600000B23080256A03F025FA296B03F07EFA40
:104E700005D8256A286B03F0E1F9296A0880256ABC
:104E8000286AB0F9000000E00CE003F013FA696B47
:104E900003F06CFB69D8256A686B03F0CFF9296AC7
:104EA000088062E0B4F9080003F004FA266AF16AA7
:104EB00003F090FA766A0546306803F0FBF929465C
:104EC00003F058F803F0BAF93060256A03F0F2F9FC
:104ED000296B03F04BFA05D8256A286B03F0AEF96D
:104EE000696A0860256A686A006803F0E3F9696B1B
:104EF00003F03CFB39D8256A686B03F09FF9696AB7
:104F0000086032E0B4F9080003F0D4F9256AE96AD0
:104F100003F060FAAF6A0646D7E9000103F0E5F94D
:104F2000314603F027F803F0D3FBC7E9000103F093
:104F3000DCF9296B03F01AFA06D8256A286B03F00E
:104F4000C7FBAA6AC2E90001256AA96AD1E9000182
:104F500003F0CBF9696B03F009FB06D8256A686B8F
:104F600003F0B6FBAA6AC2E90001A4F80880BDE814
:104F7000F0810000440000200000484210B50446C3
:104F8000FEF7E7FF7820FEF7C7FF0020FEF7C4FF1B
:104F90002046FEF7C1FFBDE81040FEF7E9BF000064
:104FA0002DE9F0410E460546FEF7D3FF7820FEF7C7
:104FB000B3FF4020FEF7B0FF0024094F09E0387826
:104FC0000028285D01D1C043C0B2FEF7A5FF641CD4
:104FD000E4B2B442F3D3BDE8F041FEF7C9BF00002C
:104FE00043000020704700002DE9F04FFE48B9B0A3
:104FF0003022C469FD4929A8FBF7B2FAFB496022B7
:10500000F0390DA8FBF7ACFA2069FDF7E7FB07467E
:1050100094F90A000021FDF7EDFB089094F90A00CD
:105020000121FDF7E7FB0546DDE92901CDE90B018B
:1050300020784FF0140900287ED1804694F82C0087
:10504000012828D14FF080463146109802F092FF97
:1050500003F0F4F80FFA80FB31460F9802F08AFF54
:1050600003F0ECF80FFA80FA4FF07E510E9803F03F
:10507000B9FA03F0E3F806B24FF07E510D9803F051
:10508000B1FA03F0DBF80021009100B25B46524612
:105090003146FEF76DF994F82D00012801D105F194
:1050A000020800264FF00C0ADFF844B31BE0089812
:1050B00003F000F90C9902F05DFF10F1FF4F03D2ED
:1050C0000C98B0F1854F19DD94F90A0003F0F2F85D
:1050D000C6493031096802F04DFF0C9902F04AFFD1
:1050E000761C36B20C90BE42E1DBC04EA16A303E67
:1050F000306803F03BFA7CD2A06A36E106EB46004A
:1051000021690990019051F8302029460898FCF750
:10511000F2FE369000950BAA31462046089BFDF71B
:105120007DF9019822690AEBC0001058E8B308998C
:10513000891C3791007800E04FE1012844D0ADA0F0
:1051400000900C9803F07AF801B20491379803F0BC
:10515000B1F802900F990B9802F00CFF029903F03E
:1051600041FAA54903F03EFA03F068F801B238911C
:10517000109803F063F800B2289059460F9803F096
:1051800031FA03F05BF800B227900E9803F056F85E
:1051900000B226900D9803F051F8089900B201F082
:1051A000FF0CEBB20499009A00E00FE0CDE9011C7E
:1051B000CDE9033238990DF1980C00919CE80E006E
:1051C000FFF72BF8379803E08CA0B9E70020379061
:1051D00003F070F825900190404603F06BF80090C2
:1051E00003901399119802F0C5FE594603F0FAF99D
:1051F00000E0B9E04FF0804103F0F4F92B9903F09F
:10520000F1F9039903F0EEF9019903F0EBF902903B
:10521000369803F04FF8029903F0A8F943D20F999A
:10522000139802F0D7FF1DD10D99119802F0D2FF0B
:1052300018D11099149802F0CDFF13D10E9912983D
:1052400002F0C8FF0ED1099A206909EBC201029051
:10525000019140584FF07C5103F0C4F90246DDE95A
:1052600001010A503698404203F024F80999024699
:10527000236909EBC10004901958104603F076F930
:1052800011D2009801901399119802F073FE5946BB
:1052900003F0A8F90B9903F0A5F9019903F0A2F91D
:1052A0002269049950500C9802F0C8FF01B237915E
:1052B0000B99009802F05EFE099B216909EBC3027D
:1052C0000191895802F056FE02F0B8FF01B2369102
:1052D000109802F0B3FF00B227902598039042483F
:1052E000C069B0F92E0002F0E5FF28900290009806
:1052F000259059460F9803F075F9259903F072F936
:10530000029903F06FF94FF0804103F06BF90399B4
:1053100003F068F902F092FF00B226900E9802F0B6
:105320008DFF00B22590289802900D99009802F008
:1053300021FE029902F01EFE02F080FF099A0199F7
:1053400000B251F832C00899EAB2CBB23799CDE930
:105350000113CDE9032C36990DF1940C00919CE8D2
:105360000E00FEF75AFFAFE6306802F067FF0FFA53
:1053700080F80E9802F062FF06B20F990D9802F0C5
:10538000F9FD1F4903F02EF902F058FF01210091A9
:1053900000B2434605223146FDF7EAFF0E99109808
:1053A00002F0E8FD4FF07E5103F01CF902F046FFD9
:1053B0000FFA80F80F990D9802F0DCFD114903F007
:1053C00011F902F03BFF06B20E9802F037FF01B26E
:1053D000304643460246FDF739FF207801287DD14B
:1053E00000264FF0100B5BE044000020AC1C0020B6
:1053F0000000C040A1F5000000001041A1F600002F
:105400000000A04000004040B4F93600824602F09F
:1054100051FF0B990390884602F0ACFD10F1FF4F4D
:1054200002D2B8F1864F06DD8A490398096802F076
:10543000A1FD41462FE00C9802F000FF00B226903B
:10544000404602F06BFD01F003FE02F0BBFA0FFADA
:1054500080FC06EB460221690BEBC200085800B93C
:105460007D48B4F93230B4F934200021CDE901137C
:105470000091CDE90320B4F93830524660462699B0
:10548000FFF760F9B4F9360002F014FF71490968BA
:1054900002F070FD0B9902F06DFD761C36B20B9098
:1054A000BE42B1DBB4F93200B4F934200021CDE9B9
:1054B00001100091694B00EBD070C91E01EB600038
:1054C000CDE9032300B2052306220021FFF73AF9B4
:1054D000B4F93A00216900EB400000E0B3E051F874
:1054E000302029460898FCF706FD0646594FB4F9C6
:1054F0003200303FB04219DAB968386802F06AFE0B
:1055000016D1F968786802F065FE11D1B4F93A1045
:10551000206901EB410209EBC2078046C0594FF0F8
:105520007C5103F05FF848F8070001E000F01EFC32
:10553000704202F0BFFEB4F93A20216902EB420248
:1055400009EBC2024F46895803F010F80DD2B4F9A6
:105550003200401C02F0AEFE0146B4F93A00226966
:1055600000EB400007EBC0001150B4F93280B045A9
:1055700008DAB4F93A00216900EB400007EBC000FB
:1055800008581DE0B4F93A10206901EB410150F8C8
:10559000312029460898FCF7AEFC08EBD871491079
:1055A00000EBD070A1EB600002F084FEB4F93A2069
:1055B000216902EB420207EBC202895802F0DAFCD1
:1055C00002F03CFEB4F93A20216902EB4202089B4A
:1055D00051F83210EAB2DDB2B4F9343094F90A600D
:1055E0000295CDE903219E1B00B236B2CDE900063B
:1055F0000021B4F932200846FEF70FFEB4F934005A
:10560000802801DB052500E003251248603800688A
:1056100002F014FE02B201200090208F2B460A30C7
:1056200001B20020FDF7A4FE208F05EBD5720A2100
:1056300001EB6201084403B2608E1946401E02B2BB
:105640000020FDF703FEA069002800D0804739B094
:10565000BDE8F08FDC1C002046C7000840C70008EA
:10566000034A516821F440410143516070470000F2
:1056700000100240044A0029516901D0014300E0B2
:10568000814351617047000000100240044A002924
:10569000D16901D0014300E08143D161704700002E
:1056A00000100240044A0029916901D0014300E042
:1056B0008143916170470000001002400C4801686E
:1056C00041F00101016041680A4A114041600168EE
:1056D000094A11400160016821F48021016041689C
:1056E00021F4FE0141604FF41F018160704700000A
:1056F000001002400000FFF8FFFFF6FE30B51F4922
:105700004A6812F00C031E4A03D0042B01D0082B68
:1057100021D002604A680F231A4C03EA1212A35CDC
:105720000268DA4042604B68072505EA1323E35C10
:1057300022FA03F383604B6805EAD323E35CDA4083
:10574000C2604968032303EA9131231F595CB2FB0D
:10575000F1F1016130BD4A684B6802F470124FF0FC
:10576000020413F4803F04EB924202D04B689B0387
:1057700001D5054B00E0024B5A43CAE70010024036
:1057800000127A003300002000093D00024600208C
:1057900053090949012B0BD0022B0BD0D1F824104F
:1057A00002F01F02012393400B4200D001207047FA
:1057B0000968F5E7096AF3E700100240024840680B
:1057C00000F00C007047000000100240034A5168CE
:1057D00021F0F001014351607047000000100240C9
:1057E0000B490A6822F480320A600A6822F4802297
:1057F0000A60B0F5803F07D0B0F5802F03D108686C
:1058000040F4A02008607047086840F48030F9E751
:105810000010024010B5FFF751FF4FF480342046CE
:10582000FFF7DEFF00F056F8012823D10020FFF734
:10583000CDFFA01100F020F8002000F027F8022092
:10584000FCF710FF1020FCF701FF4FF4E011204699
:1058500000F02CF8012000F023F83920FFF796FF24
:105860000028FAD0022000F02BF800BFFFF7A6FFB7
:105870000828FBD110BD0000034A516821F4E06103
:1058800001435160704700000010024003494A681C
:1058900022F4605242EAC0004860704700100240A3
:1058A000014908667047000000004242034A5368FD
:1058B000084323F47C1318435060704700100240E3
:1058C000034A516821F00301014351607047000011
:1058D0000010024018B500204FF4A0640090312061
:1058E000FFF754FF0099491C0091A14201D0002804
:1058F000F5D03120FFF74AFF002800D0012018BD65
:105900002DE9FF4F981E0FFA80FA81B0901E00B269
:105910008B4600900BF101000FFA80F801981746B2
:10592000401C0FFA80F901981E463844401E05B20B
:105930000BEB06000E99401E04B2062904D2DFE8E4
:1059400001F00307242F566633463A46594658E07D
:10595000032FF9DB032EF7DB01231A465946019882
:10596000FEF77AFC012328461A465946FEF774FCD6
:10597000012321461A460198FEF76EFC01232146B9
:1059800028461A46FEF768FCDEE733463A46594693
:105990000198FEF761FC534641464846009A31E0C3
:1059A00033463A4659460198FEF756FC534641465F
:1059B0004846009AFEF750FC032F0BDB01231A46E2
:1059C00059460198FEF748FC012328461A465946D5
:1059D000FEF742FC032E1ADB012321461A460198EA
:1059E000FEF73AFC0123214628461A460AE00948F8
:1059F0000121C06990F90A00FCF7FCFE024633461B
:105A00004146019805B0BDE8F04FFEF725BC05B052
:105A1000BDE8F08F4400002010B50B4C2078012821
:105A200010D1E06904220169B0F93A0000EB4000AE
:105A300002EBC0000858804700202070BDE81040ED
:105A4000FCF760BD10BD0000440000202DE9F05FB0
:105A5000654C94F9011000296FD0E669DFF88CB12C
:105A60004FF0010896F900004FF00809ABF130073C
:105A7000002510B101287DD0ACE0A246012924D137
:105A800086F84880B6F93A00316900EB40020820F8
:105A900000EBC20008580078E8B1FEF7DFFF3D6078
:105AA000DAF81C00DBF808300364DBF80C10416402
:105AB0000169B0F93A0000EB4003082000EBC30095
:105AC0000858CAF81C00FCF7B9FB9AF801005446C4
:105AD00002281FD02DE04FF08041B06A02F082FD15
